{
  "contractName": "Betlist",
  "abi": [
    {
      "constant": true,
      "inputs": [
        {
          "name": "",
          "type": "uint256"
        }
      ],
      "name": "bets",
      "outputs": [
        {
          "name": "",
          "type": "address"
        }
      ],
      "payable": false,
      "stateMutability": "view",
      "type": "function"
    },
    {
      "constant": false,
      "inputs": [
        {
          "name": "startTime",
          "type": "uint256"
        },
        {
          "name": "timestamp",
          "type": "uint256"
        },
        {
          "name": "initial",
          "type": "uint256"
        },
        {
          "name": "location",
          "type": "string"
        }
      ],
      "name": "createBet",
      "outputs": [
        {
          "name": "",
          "type": "address"
        }
      ],
      "payable": true,
      "stateMutability": "payable",
      "type": "function"
    },
    {
      "constant": true,
      "inputs": [],
      "name": "GetContracts",
      "outputs": [
        {
          "name": "",
          "type": "address[]"
        }
      ],
      "payable": false,
      "stateMutability": "view",
      "type": "function"
    }
  ],
  "bytecode": "0x608060405234801561001057600080fd5b50612497806100206000396000f3fe6080604052600436106200005b576000357c0100000000000000000000000000000000000000000000000000000000900463ffffffff16806322af00fa14620000605780635c88edf614620000df5780638040a5b814620001fe575b600080fd5b3480156200006d57600080fd5b506200009d600480360360208110156200008657600080fd5b81019080803590602001909291905050506200026f565b604051808273ffffffffffffffffffffffffffffffffffffffff1673ffffffffffffffffffffffffffffffffffffffff16815260200191505060405180910390f35b620001bc60048036036080811015620000f757600080fd5b81019080803590602001909291908035906020019092919080359060200190929190803590602001906401000000008111156200013357600080fd5b8201836020820111156200014657600080fd5b803590602001918460018302840111640100000000831117156200016957600080fd5b91908080601f016020809104026020016040519081016040528093929190818152602001838380828437600081840152601f19601f820116905080830192505050505050509192919290505050620002ae565b604051808273ffffffffffffffffffffffffffffffffffffffff1673ffffffffffffffffffffffffffffffffffffffff16815260200191505060405180910390f35b3480156200020b57600080fd5b50620002166200041c565b6040518080602001828103825283818151815260200191508051906020019060200280838360005b838110156200025b5780820151818401526020810190506200023e565b505050509050019250505060405180910390f35b6000818154811015156200027f57fe5b906000526020600020016000915054906101000a900473ffffffffffffffffffffffffffffffffffffffff1681565b60008034868686863433620002c2620004ac565b80878152602001868152602001858152602001806020018481526020018373ffffffffffffffffffffffffffffffffffffffff1673ffffffffffffffffffffffffffffffffffffffff168152602001828103825285818151815260200191508051906020019080838360005b838110156200034b5780820151818401526020810190506200032e565b50505050905090810190601f168015620003795780820380516001836020036101000a031916815260200191505b509750505050505050506040518091039082f0801580156200039f573d6000803e3d6000fd5b5090509050600081905060008190806001815401808255809150509060018203906000526020600020016000909192909190916101000a81548173ffffffffffffffffffffffffffffffffffffffff021916908373ffffffffffffffffffffffffffffffffffffffff160217905550508092505050949350505050565b60606000805480602002602001604051908101604052809291908181526020018280548015620004a257602002820191906000526020600020905b8160009054906101000a900473ffffffffffffffffffffffffffffffffffffffff1673ffffffffffffffffffffffffffffffffffffffff168152602001906001019080831162000457575b5050505050905090565b604051611fae80620004be8339019056fe6080604052600160065560405162001fae38038062001fae833981018060405260c08110156200002e57600080fd5b8101908080519060200190929190805190602001909291908051906020019092919080516401000000008111156200006557600080fd5b828101905060208101848111156200007c57600080fd5b81518560018202830111640100000000821117156200009a57600080fd5b5050929190602001805190602001909291908051906020019092919050505080600560006101000a81548173ffffffffffffffffffffffffffffffffffffffff021916908373ffffffffffffffffffffffffffffffffffffffff160217905550816007819055508360088190555082600990805190602001906200012092919062000f89565b5084600b8190555073aff0d0eda5a90aaa5a58aacb2b05e3e25eed7db9600160006101000a81548173ffffffffffffffffffffffffffffffffffffffff021916908373ffffffffffffffffffffffffffffffffffffffff1602179055507f096835e36c2ccea88ff2b3aca87dfc938b977e52ea656873ff76a8dba50d4d346040518080602001828103825260278152602001807f5175657279207761732073656e742077616974696e6720666f7220726573706f81526020017f6e73652e2e2e2e0000000000000000000000000000000000000000000000000081525060400191505060405180910390a1620002fa866040805190810160405280600c81526020017f576f6c6672616d416c706861000000000000000000000000000000000000000081525060098054600181600116156101000203166002900480601f016020809104026020016040519081016040528092919081815260200182805460018160011615610100020316600290048015620002e05780601f10620002b457610100808354040283529160200191620002e0565b820191906000526020600020905b815481529060010190602001808311620002c257829003601f168201915b505050505062000307640100000000026401000000009004565b5050505050505062001038565b60008073ffffffffffffffffffffffffffffffffffffffff16600160009054906101000a900473ffffffffffffffffffffffffffffffffffffffff1673ffffffffffffffffffffffffffffffffffffffff161480620003a1575060006200039f600160009054906101000a900473ffffffffffffffffffffffffffffffffffffffff16620008fc640100000000026401000000009004565b145b15620003c457620003c2600062000907640100000000026401000000009004565b505b600160009054906101000a900473ffffffffffffffffffffffffffffffffffffffff1673ffffffffffffffffffffffffffffffffffffffff166338cc48316040518163ffffffff167c0100000000000000000000000000000000000000000000000000000000028152600401602060405180830381600087803b1580156200044b57600080fd5b505af115801562000460573d6000803e3d6000fd5b505050506040513d60208110156200047757600080fd5b810190808051906020019092919050505073ffffffffffffffffffffffffffffffffffffffff166000809054906101000a900473ffffffffffffffffffffffffffffffffffffffff1673ffffffffffffffffffffffffffffffffffffffff16141515620005e257600160009054906101000a900473ffffffffffffffffffffffffffffffffffffffff1673ffffffffffffffffffffffffffffffffffffffff166338cc48316040518163ffffffff167c0100000000000000000000000000000000000000000000000000000000028152600401602060405180830381600087803b1580156200056557600080fd5b505af11580156200057a573d6000803e3d6000fd5b505050506040513d60208110156200059157600080fd5b81019080805190602001909291905050506000806101000a81548173ffffffffffffffffffffffffffffffffffffffff021916908373ffffffffffffffffffffffffffffffffffffffff1602179055505b60008060009054906101000a900473ffffffffffffffffffffffffffffffffffffffff1673ffffffffffffffffffffffffffffffffffffffff1663524f3889856040518263ffffffff167c01000000000000000000000000000000000000000000000000000000000281526004018080602001828103825283818151815260200191508051906020019080838360005b838110156200068f57808201518184015260208101905062000672565b50505050905090810190601f168015620006bd5780820380516001836020036101000a031916815260200191505b5092505050602060405180830381600087803b158015620006dd57600080fd5b505af1158015620006f2573d6000803e3d6000fd5b505050506040513d60208110156200070957600080fd5b8101908080519060200190929190505050905062030d403a02670de0b6b3a76400000181111562000742576000600102915050620008f5565b6000809054906101000a900473ffffffffffffffffffffffffffffffffffffffff1673ffffffffffffffffffffffffffffffffffffffff1663adf59f99828787876040518563ffffffff167c0100000000000000000000000000000000000000000000000000000000028152600401808481526020018060200180602001838103835285818151815260200191508051906020019080838360005b83811015620007fa578082015181840152602081019050620007dd565b50505050905090810190601f168015620008285780820380516001836020036101000a031916815260200191505b50838103825284818151815260200191508051906020019080838360005b838110156200086357808201518184015260208101905062000846565b50505050905090810190601f168015620008915780820380516001836020036101000a031916815260200191505b50955050505050506020604051808303818588803b158015620008b357600080fd5b505af1158015620008c8573d6000803e3d6000fd5b50505050506040513d6020811015620008e057600080fd5b81019080805190602001909291905050509150505b9392505050565b6000813b9050919050565b60006200092262000929640100000000026401000000009004565b9050919050565b6000806200095a731d3b2638a7cc9f2cb3d298a3da7a90b67e5506ed620008fc640100000000026401000000009004565b111562000a0f57731d3b2638a7cc9f2cb3d298a3da7a90b67e5506ed600160006101000a81548173ffffffffffffffffffffffffffffffffffffffff021916908373ffffffffffffffffffffffffffffffffffffffff16021790555062000a056040805190810160405280600b81526020017f6574685f6d61696e6e657400000000000000000000000000000000000000000081525062000f6d640100000000026401000000009004565b6001905062000f6a565b600062000a3f73c03a2615d5efaf5f49f60b7bb6583eaec212fdf1620008fc640100000000026401000000009004565b111562000af45773c03a2615d5efaf5f49f60b7bb6583eaec212fdf1600160006101000a81548173ffffffffffffffffffffffffffffffffffffffff021916908373ffffffffffffffffffffffffffffffffffffffff16021790555062000aea6040805190810160405280600c81526020017f6574685f726f707374656e33000000000000000000000000000000000000000081525062000f6d640100000000026401000000009004565b6001905062000f6a565b600062000b2473b7a07bcf2ba2f2703b24c0691b5278999c59ac7e620008fc640100000000026401000000009004565b111562000bd95773b7a07bcf2ba2f2703b24c0691b5278999c59ac7e600160006101000a81548173ffffffffffffffffffffffffffffffffffffffff021916908373ffffffffffffffffffffffffffffffffffffffff16021790555062000bcf6040805190810160405280600981526020017f6574685f6b6f76616e000000000000000000000000000000000000000000000081525062000f6d640100000000026401000000009004565b6001905062000f6a565b600062000c0973146500cfd35b22e4a392fe0adc06de1a1368ed48620008fc640100000000026401000000009004565b111562000cbe5773146500cfd35b22e4a392fe0adc06de1a1368ed48600160006101000a81548173ffffffffffffffffffffffffffffffffffffffff021916908373ffffffffffffffffffffffffffffffffffffffff16021790555062000cb46040805190810160405280600b81526020017f6574685f72696e6b65627900000000000000000000000000000000000000000081525062000f6d640100000000026401000000009004565b6001905062000f6a565b600062000cee73a2998efd205fb9d4b4963afb70778d6354ad3a41620008fc640100000000026401000000009004565b111562000da35773a2998efd205fb9d4b4963afb70778d6354ad3a41600160006101000a81548173ffffffffffffffffffffffffffffffffffffffff021916908373ffffffffffffffffffffffffffffffffffffffff16021790555062000d996040805190810160405280600a81526020017f6574685f676f65726c690000000000000000000000000000000000000000000081525062000f6d640100000000026401000000009004565b6001905062000f6a565b600062000dd3736f485c8bf6fc43ea212e93bbf8ce046c7f1cb475620008fc640100000000026401000000009004565b111562000e3957736f485c8bf6fc43ea212e93bbf8ce046c7f1cb475600160006101000a81548173ffffffffffffffffffffffffffffffffffffffff021916908373ffffffffffffffffffffffffffffffffffffffff1602179055506001905062000f6a565b600062000e697320e12a1f859b3feae5fb2a0a32c18f5a65555bbf620008fc640100000000026401000000009004565b111562000ecf577320e12a1f859b3feae5fb2a0a32c18f5a65555bbf600160006101000a81548173ffffffffffffffffffffffffffffffffffffffff021916908373ffffffffffffffffffffffffffffffffffffffff1602179055506001905062000f6a565b600062000eff7351efaf4c8b3c9afbd5ab9f4bbc82784ab6ef8faa620008fc640100000000026401000000009004565b111562000f65577351efaf4c8b3c9afbd5ab9f4bbc82784ab6ef8faa600160006101000a81548173ffffffffffffffffffffffffffffffffffffffff021916908373ffffffffffffffffffffffffffffffffffffffff1602179055506001905062000f6a565b600090505b90565b806002908051906020019062000f8592919062000f89565b5050565b828054600181600116156101000203166002900490600052602060002090601f016020900481019282601f1062000fcc57805160ff191683800117855562000ffd565b8280016001018555821562000ffd579182015b8281111562000ffc57825182559160200191906001019062000fdf565b5b5090506200100c919062001010565b5090565b6200103591905b808211156200103157600081600090555060010162001017565b5090565b90565b610f6680620010486000396000f3fe6080604052600436106100a4576000357c0100000000000000000000000000000000000000000000000000000000900463ffffffff1680631d73c64c146100a957806327dc297e146100d4578063302bcc57146101a657806338bbfa50146101d15780633a6a13a41461033a578063516f279e1461036a5780638ec06470146103fa578063adccea12146104c2578063b80777ea146104ed578063d24257c014610518575b600080fd5b3480156100b557600080fd5b506100be610543565b6040518082815260200191505060405180910390f35b3480156100e057600080fd5b506101a4600480360360408110156100f757600080fd5b81019080803590602001909291908035906020019064010000000081111561011e57600080fd5b82018360208201111561013057600080fd5b8035906020019184600183028401116401000000008311171561015257600080fd5b91908080601f016020809104026020016040519081016040528093929190818152602001838380828437600081840152601f19601f820116905080830192505050505050509192919290505050610549565b005b3480156101b257600080fd5b506101bb61058c565b6040518082815260200191505060405180910390f35b3480156101dd57600080fd5b50610338600480360360608110156101f457600080fd5b81019080803590602001909291908035906020019064010000000081111561021b57600080fd5b82018360208201111561022d57600080fd5b8035906020019184600183028401116401000000008311171561024f57600080fd5b91908080601f016020809104026020016040519081016040528093929190818152602001838380828437600081840152601f19601f820116905080830192505050505050509192919290803590602001906401000000008111156102b257600080fd5b8201836020820111156102c457600080fd5b803590602001918460018302840111640100000000831117156102e657600080fd5b91908080601f016020809104026020016040519081016040528093929190818152602001838380828437600081840152601f19601f820116905080830192505050505050509192919290505050610592565b005b6103686004803603602081101561035057600080fd5b81019080803515159060200190929190505050610597565b005b34801561037657600080fd5b5061037f61072a565b6040518080602001828103825283818151815260200191508051906020019080838360005b838110156103bf5780820151818401526020810190506103a4565b50505050905090810190601f1680156103ec5780820380516001836020036101000a031916815260200191505b509250505060405180910390f35b34801561040657600080fd5b506104c06004803603602081101561041d57600080fd5b810190808035906020019064010000000081111561043a57600080fd5b82018360208201111561044c57600080fd5b8035906020019184600183028401116401000000008311171561046e57600080fd5b91908080601f016020809104026020016040519081016040528093929190818152602001838380828437600081840152601f19601f8201169050808301925050505050505091929192905050506107c8565b005b3480156104ce57600080fd5b506104d7610c47565b6040518082815260200191505060405180910390f35b3480156104f957600080fd5b50610502610c4d565b6040518082815260200191505060405180910390f35b34801561052457600080fd5b5061052d610c53565b6040518082815260200191505060405180910390f35b60085481565b610588828260006040519080825280601f01601f1916602001820160405280156105825781602001600182028038833980820191505090505b50610592565b5050565b60065481565b505050565b60075434141515610636576040517f08c379a00000000000000000000000000000000000000000000000000000000081526004018080602001828103825260338152602001807f416d6f756e742073656e74206e6f74207468652073616d65206173207468652081526020017f72657175697265642062657420616d6f756e740000000000000000000000000081525060400191505060405180910390fd5b60016006540160068190555061064a610f08565b33816000019073ffffffffffffffffffffffffffffffffffffffff16908173ffffffffffffffffffffffffffffffffffffffff168152505081816020019015159081151581525050600c8190806001815401808255809150509060018203906000526020600020016000909192909190915060008201518160000160006101000a81548173ffffffffffffffffffffffffffffffffffffffff021916908373ffffffffffffffffffffffffffffffffffffffff16021790555060208201518160000160146101000a81548160ff0219169083151502179055505050505050565b60098054600181600116156101000203166002900480601f0160208091040260200160405190810160405280929190818152602001828054600181600116156101000203166002900480156107c05780601f10610795576101008083540402835291602001916107c0565b820191906000526020600020905b8154815290600101906020018083116107a357829003601f168201915b505050505081565b7f738c4fab4f4c556f6f79d8da6d0302ddaf21484a09f30494d74d5ef496955f82816040518080602001828103825283818151815260200191508051906020019080838360005b8381101561082a57808201518184015260208101905061080f565b50505050905090810190601f1680156108575780820380516001836020036101000a031916815260200191505b509250505060405180910390a161086d81610c59565b600a81905550600a54600854141561090457600560009054906101000a900473ffffffffffffffffffffffffffffffffffffffff1673ffffffffffffffffffffffffffffffffffffffff166108fc3073ffffffffffffffffffffffffffffffffffffffff16319081150290604051600060405180830381858888f193505050501580156108fe573d6000803e3d6000fd5b50610c44565b600a546008541115610a465760008090505b600c80549050811015610a405760011515600c8281548110151561093657fe5b9060005260206000200160000160149054906101000a900460ff1615151415610a3357600d600c8281548110151561096a57fe5b906000526020600020019080600181540180825580915050906001820390600052602060002001600090919290919091506000820160009054906101000a900473ffffffffffffffffffffffffffffffffffffffff168160000160006101000a81548173ffffffffffffffffffffffffffffffffffffffff021916908373ffffffffffffffffffffffffffffffffffffffff1602179055506000820160149054906101000a900460ff168160000160146101000a81548160ff0219169083151502179055505050505b8080600101915050610916565b50610b78565b60008090505b600c80549050811015610b765760001515600c82815481101515610a6c57fe5b9060005260206000200160000160149054906101000a900460ff1615151415610b6957600d600c82815481101515610aa057fe5b906000526020600020019080600181540180825580915050906001820390600052602060002001600090919290919091506000820160009054906101000a900473ffffffffffffffffffffffffffffffffffffffff168160000160006101000a81548173ffffffffffffffffffffffffffffffffffffffff021916908373ffffffffffffffffffffffffffffffffffffffff1602179055506000820160149054906101000a900460ff168160000160146101000a81548160ff0219169083151502179055505050505b8080600101915050610a4c565b505b60008090505b600d80549050811015610c4257600d81815481101515610b9a57fe5b9060005260206000200160000160009054906101000a900473ffffffffffffffffffffffffffffffffffffffff1673ffffffffffffffffffffffffffffffffffffffff166108fc600d805490503073ffffffffffffffffffffffffffffffffffffffff1631811515610c0857fe5b049081150290604051600060405180830381858888f19350505050158015610c34573d6000803e3d6000fd5b508080600101915050610b7e565b505b50565b600a5481565b600b5481565b60075481565b6000610c66826000610c6d565b9050919050565b600060608390506000809050600080905060008090505b8351811015610ee95760308482815181101515610c9d57fe5b9060200101517f010000000000000000000000000000000000000000000000000000000000000090047f0100000000000000000000000000000000000000000000000000000000000000027f0100000000000000000000000000000000000000000000000000000000000000900460ff1610158015610d9b575060398482815181101515610d2757fe5b9060200101517f010000000000000000000000000000000000000000000000000000000000000090047f0100000000000000000000000000000000000000000000000000000000000000027f0100000000000000000000000000000000000000000000000000000000000000900460ff1611155b15610e4f578115610dbe576000861415610db457610ee9565b8580600190039650505b600a8302925060308482815181101515610dd457fe5b9060200101517f010000000000000000000000000000000000000000000000000000000000000090047f0100000000000000000000000000000000000000000000000000000000000000027f0100000000000000000000000000000000000000000000000000000000000000900460ff160383019250610edc565b602e8482815181101515610e5f57fe5b9060200101517f010000000000000000000000000000000000000000000000000000000000000090047f0100000000000000000000000000000000000000000000000000000000000000027f0100000000000000000000000000000000000000000000000000000000000000900460ff161415610edb57600191505b5b8080600101915050610c84565b506000851115610efc5784600a0a820291505b81935050505092915050565b6040805190810160405280600073ffffffffffffffffffffffffffffffffffffffff168152602001600015158152509056fea165627a7a72305820b13fe9376be423c6717c454af747c0fe078da1936bf2156cb0e134a977711b5b0029a165627a7a72305820454bd257fa8b575cc11ece29e357b771fe579af7f9ab1bfb684bad286a7596990029",
  "source": "pragma solidity ^0.5.0;\nimport \"./BettingContract.sol\";\n\ncontract Betlist\n{\n    address[] public bets;\n\n    //Creates a new contract\n    function createBet(uint startTime, uint timestamp, uint initial, string memory location) public payable returns (address)\n    {\n        BettingContract newBet = (new BettingContract).value(msg.value)(startTime, timestamp, initial, location, msg.value, msg.sender);\n        address contractAddr = address(newBet);\n        bets.push(contractAddr);\n        return contractAddr;\n    }\n\n    //Returns all the contract\n    function GetContracts() public view returns (address[] memory)\n    {\n        return bets;\n    }\n}",
  "sourcePath": "/home/debreker/Dev/school/WeatherWars/contracts/Factory.sol",
  "compiler": {
    "name": "solc",
    "version": "0.5.0+commit.1d4f565a.Emscripten.clang"
  },
  "schemaVersion": "3.0.9",
  "updatedAt": "2019-06-14T10:02:31.227Z",
  "devdoc": {
    "methods": {}
  },
  "userdoc": {
    "methods": {}
  }
}