{
  "contractName": "BettingContract",
  "abi": [
    {
      "constant": true,
      "inputs": [],
      "name": "initialBet",
      "outputs": [
        {
          "name": "",
          "type": "uint256"
        }
      ],
      "payable": false,
      "stateMutability": "view",
      "type": "function"
    },
    {
      "constant": false,
      "inputs": [
        {
          "name": "_myid",
          "type": "bytes32"
        },
        {
          "name": "_result",
          "type": "string"
        }
      ],
      "name": "__callback",
      "outputs": [],
      "payable": false,
      "stateMutability": "nonpayable",
      "type": "function"
    },
    {
      "constant": true,
      "inputs": [],
      "name": "playerCount",
      "outputs": [
        {
          "name": "",
          "type": "int256"
        }
      ],
      "payable": false,
      "stateMutability": "view",
      "type": "function"
    },
    {
      "constant": false,
      "inputs": [
        {
          "name": "_myid",
          "type": "bytes32"
        },
        {
          "name": "_result",
          "type": "string"
        },
        {
          "name": "_proof",
          "type": "bytes"
        }
      ],
      "name": "__callback",
      "outputs": [],
      "payable": false,
      "stateMutability": "nonpayable",
      "type": "function"
    },
    {
      "constant": true,
      "inputs": [],
      "name": "location",
      "outputs": [
        {
          "name": "",
          "type": "string"
        }
      ],
      "payable": false,
      "stateMutability": "view",
      "type": "function"
    },
    {
      "constant": true,
      "inputs": [],
      "name": "temperature",
      "outputs": [
        {
          "name": "",
          "type": "uint256"
        }
      ],
      "payable": false,
      "stateMutability": "view",
      "type": "function"
    },
    {
      "constant": true,
      "inputs": [],
      "name": "timestamp",
      "outputs": [
        {
          "name": "",
          "type": "uint256"
        }
      ],
      "payable": false,
      "stateMutability": "view",
      "type": "function"
    },
    {
      "constant": true,
      "inputs": [],
      "name": "betAmount",
      "outputs": [
        {
          "name": "",
          "type": "uint256"
        }
      ],
      "payable": false,
      "stateMutability": "view",
      "type": "function"
    },
    {
      "inputs": [
        {
          "name": "startTime",
          "type": "uint256"
        },
        {
          "name": "timestamp_",
          "type": "uint256"
        },
        {
          "name": "initial",
          "type": "uint256"
        },
        {
          "name": "location_",
          "type": "string"
        },
        {
          "name": "betAmount_",
          "type": "uint256"
        },
        {
          "name": "owner_",
          "type": "address"
        }
      ],
      "payable": true,
      "stateMutability": "payable",
      "type": "constructor"
    },
    {
      "anonymous": false,
      "inputs": [
        {
          "indexed": false,
          "name": "description",
          "type": "string"
        }
      ],
      "name": "NewOraclizeQuery",
      "type": "event"
    },
    {
      "anonymous": false,
      "inputs": [
        {
          "indexed": false,
          "name": "temperature",
          "type": "string"
        }
      ],
      "name": "NewTemperature",
      "type": "event"
    },
    {
      "constant": false,
      "inputs": [
        {
          "name": "guessedHigher",
          "type": "bool"
        }
      ],
      "name": "AddPlayer",
      "outputs": [],
      "payable": true,
      "stateMutability": "payable",
      "type": "function"
    },
    {
      "constant": false,
      "inputs": [
        {
          "name": "_time",
          "type": "uint256"
        },
        {
          "name": "searchstring",
          "type": "string"
        }
      ],
      "name": "getWeather",
      "outputs": [],
      "payable": false,
      "stateMutability": "nonpayable",
      "type": "function"
    },
    {
      "constant": false,
      "inputs": [
        {
          "name": "_result",
          "type": "string"
        }
      ],
      "name": "_callback",
      "outputs": [],
      "payable": false,
      "stateMutability": "nonpayable",
      "type": "function"
    }
  ],
  "bytecode": "0x6080604052600160065560405162002d2138038062002d21833981018060405260c08110156200002e57600080fd5b8101908080519060200190929190805190602001909291908051906020019092919080516401000000008111156200006557600080fd5b828101905060208101848111156200007c57600080fd5b81518560018202830111640100000000821117156200009a57600080fd5b5050929190602001805190602001909291908051906020019092919050505080600560006101000a81548173ffffffffffffffffffffffffffffffffffffffff021916908373ffffffffffffffffffffffffffffffffffffffff160217905550816007819055508360088190555082600990805190602001906200012092919062000fa8565b5084600b81905550736f485c8bf6fc43ea212e93bbf8ce046c7f1cb475600160006101000a81548173ffffffffffffffffffffffffffffffffffffffff021916908373ffffffffffffffffffffffffffffffffffffffff160217905550620002368660098054600181600116156101000203166002900480601f0160208091040260200160405190810160405280929190818152602001828054600181600116156101000203166002900480156200021c5780601f10620001f0576101008083540402835291602001916200021c565b820191906000526020600020905b815481529060010190602001808311620001fe57829003601f168201915b505050505062000242640100000000026401000000009004565b50505050505062001057565b7f096835e36c2ccea88ff2b3aca87dfc938b977e52ea656873ff76a8dba50d4d346040518080602001828103825260278152602001807f5175657279207761732073656e742077616974696e6720666f7220726573706f81526020017f6e73652e2e2e2e0000000000000000000000000000000000000000000000000081525060400191505060405180910390a162000321826040805190810160405280600c81526020017f576f6c6672616d416c70686100000000000000000000000000000000000000008152508362000326640100000000026401000000009004565b505050565b60008073ffffffffffffffffffffffffffffffffffffffff16600160009054906101000a900473ffffffffffffffffffffffffffffffffffffffff1673ffffffffffffffffffffffffffffffffffffffff161480620003c057506000620003be600160009054906101000a900473ffffffffffffffffffffffffffffffffffffffff166200091b640100000000026401000000009004565b145b15620003e357620003e1600062000926640100000000026401000000009004565b505b600160009054906101000a900473ffffffffffffffffffffffffffffffffffffffff1673ffffffffffffffffffffffffffffffffffffffff166338cc48316040518163ffffffff167c0100000000000000000000000000000000000000000000000000000000028152600401602060405180830381600087803b1580156200046a57600080fd5b505af11580156200047f573d6000803e3d6000fd5b505050506040513d60208110156200049657600080fd5b810190808051906020019092919050505073ffffffffffffffffffffffffffffffffffffffff166000809054906101000a900473ffffffffffffffffffffffffffffffffffffffff1673ffffffffffffffffffffffffffffffffffffffff161415156200060157600160009054906101000a900473ffffffffffffffffffffffffffffffffffffffff1673ffffffffffffffffffffffffffffffffffffffff166338cc48316040518163ffffffff167c0100000000000000000000000000000000000000000000000000000000028152600401602060405180830381600087803b1580156200058457600080fd5b505af115801562000599573d6000803e3d6000fd5b505050506040513d6020811015620005b057600080fd5b81019080805190602001909291905050506000806101000a81548173ffffffffffffffffffffffffffffffffffffffff021916908373ffffffffffffffffffffffffffffffffffffffff1602179055505b60008060009054906101000a900473ffffffffffffffffffffffffffffffffffffffff1673ffffffffffffffffffffffffffffffffffffffff1663524f3889856040518263ffffffff167c01000000000000000000000000000000000000000000000000000000000281526004018080602001828103825283818151815260200191508051906020019080838360005b83811015620006ae57808201518184015260208101905062000691565b50505050905090810190601f168015620006dc5780820380516001836020036101000a031916815260200191505b5092505050602060405180830381600087803b158015620006fc57600080fd5b505af115801562000711573d6000803e3d6000fd5b505050506040513d60208110156200072857600080fd5b8101908080519060200190929190505050905062030d403a02670de0b6b3a7640000018111156200076157600060010291505062000914565b6000809054906101000a900473ffffffffffffffffffffffffffffffffffffffff1673ffffffffffffffffffffffffffffffffffffffff1663adf59f99828787876040518563ffffffff167c0100000000000000000000000000000000000000000000000000000000028152600401808481526020018060200180602001838103835285818151815260200191508051906020019080838360005b8381101562000819578082015181840152602081019050620007fc565b50505050905090810190601f168015620008475780820380516001836020036101000a031916815260200191505b50838103825284818151815260200191508051906020019080838360005b838110156200088257808201518184015260208101905062000865565b50505050905090810190601f168015620008b05780820380516001836020036101000a031916815260200191505b50955050505050506020604051808303818588803b158015620008d257600080fd5b505af1158015620008e7573d6000803e3d6000fd5b50505050506040513d6020811015620008ff57600080fd5b81019080805190602001909291905050509150505b9392505050565b6000813b9050919050565b60006200094162000948640100000000026401000000009004565b9050919050565b60008062000979731d3b2638a7cc9f2cb3d298a3da7a90b67e5506ed6200091b640100000000026401000000009004565b111562000a2e57731d3b2638a7cc9f2cb3d298a3da7a90b67e5506ed600160006101000a81548173ffffffffffffffffffffffffffffffffffffffff021916908373ffffffffffffffffffffffffffffffffffffffff16021790555062000a246040805190810160405280600b81526020017f6574685f6d61696e6e657400000000000000000000000000000000000000000081525062000f8c640100000000026401000000009004565b6001905062000f89565b600062000a5e73c03a2615d5efaf5f49f60b7bb6583eaec212fdf16200091b640100000000026401000000009004565b111562000b135773c03a2615d5efaf5f49f60b7bb6583eaec212fdf1600160006101000a81548173ffffffffffffffffffffffffffffffffffffffff021916908373ffffffffffffffffffffffffffffffffffffffff16021790555062000b096040805190810160405280600c81526020017f6574685f726f707374656e33000000000000000000000000000000000000000081525062000f8c640100000000026401000000009004565b6001905062000f89565b600062000b4373b7a07bcf2ba2f2703b24c0691b5278999c59ac7e6200091b640100000000026401000000009004565b111562000bf85773b7a07bcf2ba2f2703b24c0691b5278999c59ac7e600160006101000a81548173ffffffffffffffffffffffffffffffffffffffff021916908373ffffffffffffffffffffffffffffffffffffffff16021790555062000bee6040805190810160405280600981526020017f6574685f6b6f76616e000000000000000000000000000000000000000000000081525062000f8c640100000000026401000000009004565b6001905062000f89565b600062000c2873146500cfd35b22e4a392fe0adc06de1a1368ed486200091b640100000000026401000000009004565b111562000cdd5773146500cfd35b22e4a392fe0adc06de1a1368ed48600160006101000a81548173ffffffffffffffffffffffffffffffffffffffff021916908373ffffffffffffffffffffffffffffffffffffffff16021790555062000cd36040805190810160405280600b81526020017f6574685f72696e6b65627900000000000000000000000000000000000000000081525062000f8c640100000000026401000000009004565b6001905062000f89565b600062000d0d73a2998efd205fb9d4b4963afb70778d6354ad3a416200091b640100000000026401000000009004565b111562000dc25773a2998efd205fb9d4b4963afb70778d6354ad3a41600160006101000a81548173ffffffffffffffffffffffffffffffffffffffff021916908373ffffffffffffffffffffffffffffffffffffffff16021790555062000db86040805190810160405280600a81526020017f6574685f676f65726c690000000000000000000000000000000000000000000081525062000f8c640100000000026401000000009004565b6001905062000f89565b600062000df2736f485c8bf6fc43ea212e93bbf8ce046c7f1cb4756200091b640100000000026401000000009004565b111562000e5857736f485c8bf6fc43ea212e93bbf8ce046c7f1cb475600160006101000a81548173ffffffffffffffffffffffffffffffffffffffff021916908373ffffffffffffffffffffffffffffffffffffffff1602179055506001905062000f89565b600062000e887320e12a1f859b3feae5fb2a0a32c18f5a65555bbf6200091b640100000000026401000000009004565b111562000eee577320e12a1f859b3feae5fb2a0a32c18f5a65555bbf600160006101000a81548173ffffffffffffffffffffffffffffffffffffffff021916908373ffffffffffffffffffffffffffffffffffffffff1602179055506001905062000f89565b600062000f1e7351efaf4c8b3c9afbd5ab9f4bbc82784ab6ef8faa6200091b640100000000026401000000009004565b111562000f84577351efaf4c8b3c9afbd5ab9f4bbc82784ab6ef8faa600160006101000a81548173ffffffffffffffffffffffffffffffffffffffff021916908373ffffffffffffffffffffffffffffffffffffffff1602179055506001905062000f89565b600090505b90565b806002908051906020019062000fa492919062000fa8565b5050565b828054600181600116156101000203166002900490600052602060002090601f016020900481019282601f1062000feb57805160ff19168380011785556200101c565b828001600101855582156200101c579182015b828111156200101b57825182559160200191906001019062000ffe565b5b5090506200102b91906200102f565b5090565b6200105491905b808211156200105057600081600090555060010162001036565b5090565b90565b611cba80620010676000396000f3fe6080604052600436106100af576000357c0100000000000000000000000000000000000000000000000000000000900463ffffffff16806310220863146100b45780631d73c64c1461018657806327dc297e146101b1578063302bcc571461028357806338bbfa50146102ae5780633a6a13a414610417578063516f279e146104475780638ec06470146104d7578063adccea121461059f578063b80777ea146105ca578063d24257c0146105f5575b600080fd5b3480156100c057600080fd5b50610184600480360360408110156100d757600080fd5b8101908080359060200190929190803590602001906401000000008111156100fe57600080fd5b82018360208201111561011057600080fd5b8035906020019184600183028401116401000000008311171561013257600080fd5b91908080601f016020809104026020016040519081016040528093929190818152602001838380828437600081840152601f19601f820116905080830192505050505050509192919290505050610620565b005b34801561019257600080fd5b5061019b6106f3565b6040518082815260200191505060405180910390f35b3480156101bd57600080fd5b50610281600480360360408110156101d457600080fd5b8101908080359060200190929190803590602001906401000000008111156101fb57600080fd5b82018360208201111561020d57600080fd5b8035906020019184600183028401116401000000008311171561022f57600080fd5b91908080601f016020809104026020016040519081016040528093929190818152602001838380828437600081840152601f19601f8201169050808301925050505050505091929192905050506106f9565b005b34801561028f57600080fd5b5061029861073c565b6040518082815260200191505060405180910390f35b3480156102ba57600080fd5b50610415600480360360608110156102d157600080fd5b8101908080359060200190929190803590602001906401000000008111156102f857600080fd5b82018360208201111561030a57600080fd5b8035906020019184600183028401116401000000008311171561032c57600080fd5b91908080601f016020809104026020016040519081016040528093929190818152602001838380828437600081840152601f19601f8201169050808301925050505050505091929192908035906020019064010000000081111561038f57600080fd5b8201836020820111156103a157600080fd5b803590602001918460018302840111640100000000831117156103c357600080fd5b91908080601f016020809104026020016040519081016040528093929190818152602001838380828437600081840152601f19601f820116905080830192505050505050509192919290505050610742565b005b6104456004803603602081101561042d57600080fd5b81019080803515159060200190929190505050610747565b005b34801561045357600080fd5b5061045c610893565b6040518080602001828103825283818151815260200191508051906020019080838360005b8381101561049c578082015181840152602081019050610481565b50505050905090810190601f1680156104c95780820380516001836020036101000a031916815260200191505b509250505060405180910390f35b3480156104e357600080fd5b5061059d600480360360208110156104fa57600080fd5b810190808035906020019064010000000081111561051757600080fd5b82018360208201111561052957600080fd5b8035906020019184600183028401116401000000008311171561054b57600080fd5b91908080601f016020809104026020016040519081016040528093929190818152602001838380828437600081840152601f19601f820116905080830192505050505050509192919290505050610931565b005b3480156105ab57600080fd5b506105b4610db0565b6040518082815260200191505060405180910390f35b3480156105d657600080fd5b506105df610db6565b6040518082815260200191505060405180910390f35b34801561060157600080fd5b5061060a610dbc565b6040518082815260200191505060405180910390f35b7f096835e36c2ccea88ff2b3aca87dfc938b977e52ea656873ff76a8dba50d4d346040518080602001828103825260278152602001807f5175657279207761732073656e742077616974696e6720666f7220726573706f81526020017f6e73652e2e2e2e0000000000000000000000000000000000000000000000000081525060400191505060405180910390a16106ee826040805190810160405280600c81526020017f576f6c6672616d416c706861000000000000000000000000000000000000000081525083610dc2565b505050565b60085481565b610738828260006040519080825280601f01601f1916602001820160405280156107325781602001600182028038833980820191505090505b50610742565b5050565b60065481565b505050565b6007543414151561079e573373ffffffffffffffffffffffffffffffffffffffff166108fc349081150290604051600060405180830381858888f19350505050158015610798573d6000803e3d6000fd5b50610890565b6001600654016006819055506107b2611bb7565b33816000019073ffffffffffffffffffffffffffffffffffffffff16908173ffffffffffffffffffffffffffffffffffffffff168152505081816020019015159081151581525050600c8190806001815401808255809150509060018203906000526020600020016000909192909190915060008201518160000160006101000a81548173ffffffffffffffffffffffffffffffffffffffff021916908373ffffffffffffffffffffffffffffffffffffffff16021790555060208201518160000160146101000a81548160ff021916908315150217905550505050505b50565b60098054600181600116156101000203166002900480601f0160208091040260200160405190810160405280929190818152602001828054600181600116156101000203166002900480156109295780601f106108fe57610100808354040283529160200191610929565b820191906000526020600020905b81548152906001019060200180831161090c57829003601f168201915b505050505081565b7f738c4fab4f4c556f6f79d8da6d0302ddaf21484a09f30494d74d5ef496955f82816040518080602001828103825283818151815260200191508051906020019080838360005b83811015610993578082015181840152602081019050610978565b50505050905090810190601f1680156109c05780820380516001836020036101000a031916815260200191505b509250505060405180910390a16109d68161137b565b600a81905550600a546008541415610a6d57600560009054906101000a900473ffffffffffffffffffffffffffffffffffffffff1673ffffffffffffffffffffffffffffffffffffffff166108fc3073ffffffffffffffffffffffffffffffffffffffff16319081150290604051600060405180830381858888f19350505050158015610a67573d6000803e3d6000fd5b50610dad565b600a546008541115610baf5760008090505b600c80549050811015610ba95760011515600c82815481101515610a9f57fe5b9060005260206000200160000160149054906101000a900460ff1615151415610b9c57600d600c82815481101515610ad357fe5b906000526020600020019080600181540180825580915050906001820390600052602060002001600090919290919091506000820160009054906101000a900473ffffffffffffffffffffffffffffffffffffffff168160000160006101000a81548173ffffffffffffffffffffffffffffffffffffffff021916908373ffffffffffffffffffffffffffffffffffffffff1602179055506000820160149054906101000a900460ff168160000160146101000a81548160ff0219169083151502179055505050505b8080600101915050610a7f565b50610ce1565b60008090505b600c80549050811015610cdf5760001515600c82815481101515610bd557fe5b9060005260206000200160000160149054906101000a900460ff1615151415610cd257600d600c82815481101515610c0957fe5b906000526020600020019080600181540180825580915050906001820390600052602060002001600090919290919091506000820160009054906101000a900473ffffffffffffffffffffffffffffffffffffffff168160000160006101000a81548173ffffffffffffffffffffffffffffffffffffffff021916908373ffffffffffffffffffffffffffffffffffffffff1602179055506000820160149054906101000a900460ff168160000160146101000a81548160ff0219169083151502179055505050505b8080600101915050610bb5565b505b60008090505b600d80549050811015610dab57600d81815481101515610d0357fe5b9060005260206000200160000160009054906101000a900473ffffffffffffffffffffffffffffffffffffffff1673ffffffffffffffffffffffffffffffffffffffff166108fc600d805490503073ffffffffffffffffffffffffffffffffffffffff1631811515610d7157fe5b049081150290604051600060405180830381858888f19350505050158015610d9d573d6000803e3d6000fd5b508080600101915050610ce7565b505b50565b600a5481565b600b5481565b60075481565b60008073ffffffffffffffffffffffffffffffffffffffff16600160009054906101000a900473ffffffffffffffffffffffffffffffffffffffff1673ffffffffffffffffffffffffffffffffffffffff161480610e4a57506000610e48600160009054906101000a900473ffffffffffffffffffffffffffffffffffffffff1661138f565b145b15610e5b57610e59600061139a565b505b600160009054906101000a900473ffffffffffffffffffffffffffffffffffffffff1673ffffffffffffffffffffffffffffffffffffffff166338cc48316040518163ffffffff167c0100000000000000000000000000000000000000000000000000000000028152600401602060405180830381600087803b158015610ee157600080fd5b505af1158015610ef5573d6000803e3d6000fd5b505050506040513d6020811015610f0b57600080fd5b810190808051906020019092919050505073ffffffffffffffffffffffffffffffffffffffff166000809054906101000a900473ffffffffffffffffffffffffffffffffffffffff1673ffffffffffffffffffffffffffffffffffffffff1614151561107257600160009054906101000a900473ffffffffffffffffffffffffffffffffffffffff1673ffffffffffffffffffffffffffffffffffffffff166338cc48316040518163ffffffff167c0100000000000000000000000000000000000000000000000000000000028152600401602060405180830381600087803b158015610ff757600080fd5b505af115801561100b573d6000803e3d6000fd5b505050506040513d602081101561102157600080fd5b81019080805190602001909291905050506000806101000a81548173ffffffffffffffffffffffffffffffffffffffff021916908373ffffffffffffffffffffffffffffffffffffffff1602179055505b60008060009054906101000a900473ffffffffffffffffffffffffffffffffffffffff1673ffffffffffffffffffffffffffffffffffffffff1663524f3889856040518263ffffffff167c01000000000000000000000000000000000000000000000000000000000281526004018080602001828103825283818151815260200191508051906020019080838360005b8381101561111d578082015181840152602081019050611102565b50505050905090810190601f16801561114a5780820380516001836020036101000a031916815260200191505b5092505050602060405180830381600087803b15801561116957600080fd5b505af115801561117d573d6000803e3d6000fd5b505050506040513d602081101561119357600080fd5b8101908080519060200190929190505050905062030d403a02670de0b6b3a7640000018111156111ca576000600102915050611374565b6000809054906101000a900473ffffffffffffffffffffffffffffffffffffffff1673ffffffffffffffffffffffffffffffffffffffff1663adf59f99828787876040518563ffffffff167c0100000000000000000000000000000000000000000000000000000000028152600401808481526020018060200180602001838103835285818151815260200191508051906020019080838360005b83811015611280578082015181840152602081019050611265565b50505050905090810190601f1680156112ad5780820380516001836020036101000a031916815260200191505b50838103825284818151815260200191508051906020019080838360005b838110156112e65780820151818401526020810190506112cb565b50505050905090810190601f1680156113135780820380516001836020036101000a031916815260200191505b50955050505050506020604051808303818588803b15801561133457600080fd5b505af1158015611348573d6000803e3d6000fd5b50505050506040513d602081101561135f57600080fd5b81019080805190602001909291905050509150505b9392505050565b60006113888260006113ab565b9050919050565b6000813b9050919050565b60006113a4611646565b9050919050565b600060608390506000809050600080905060008090505b835181101561162757603084828151811015156113db57fe5b9060200101517f010000000000000000000000000000000000000000000000000000000000000090047f0100000000000000000000000000000000000000000000000000000000000000027f0100000000000000000000000000000000000000000000000000000000000000900460ff16101580156114d957506039848281518110151561146557fe5b9060200101517f010000000000000000000000000000000000000000000000000000000000000090047f0100000000000000000000000000000000000000000000000000000000000000027f0100000000000000000000000000000000000000000000000000000000000000900460ff1611155b1561158d5781156114fc5760008614156114f257611627565b8580600190039650505b600a830292506030848281518110151561151257fe5b9060200101517f010000000000000000000000000000000000000000000000000000000000000090047f0100000000000000000000000000000000000000000000000000000000000000027f0100000000000000000000000000000000000000000000000000000000000000900460ff16038301925061161a565b602e848281518110151561159d57fe5b9060200101517f010000000000000000000000000000000000000000000000000000000000000090047f0100000000000000000000000000000000000000000000000000000000000000027f0100000000000000000000000000000000000000000000000000000000000000900460ff16141561161957600191505b5b80806001019150506113c2565b50600085111561163a5784600a0a820291505b81935050505092915050565b600080611666731d3b2638a7cc9f2cb3d298a3da7a90b67e5506ed61138f565b111561170857731d3b2638a7cc9f2cb3d298a3da7a90b67e5506ed600160006101000a81548173ffffffffffffffffffffffffffffffffffffffff021916908373ffffffffffffffffffffffffffffffffffffffff1602179055506116ff6040805190810160405280600b81526020017f6574685f6d61696e6e6574000000000000000000000000000000000000000000815250611b9d565b60019050611b9a565b600061172773c03a2615d5efaf5f49f60b7bb6583eaec212fdf161138f565b11156117c95773c03a2615d5efaf5f49f60b7bb6583eaec212fdf1600160006101000a81548173ffffffffffffffffffffffffffffffffffffffff021916908373ffffffffffffffffffffffffffffffffffffffff1602179055506117c06040805190810160405280600c81526020017f6574685f726f707374656e330000000000000000000000000000000000000000815250611b9d565b60019050611b9a565b60006117e873b7a07bcf2ba2f2703b24c0691b5278999c59ac7e61138f565b111561188a5773b7a07bcf2ba2f2703b24c0691b5278999c59ac7e600160006101000a81548173ffffffffffffffffffffffffffffffffffffffff021916908373ffffffffffffffffffffffffffffffffffffffff1602179055506118816040805190810160405280600981526020017f6574685f6b6f76616e0000000000000000000000000000000000000000000000815250611b9d565b60019050611b9a565b60006118a973146500cfd35b22e4a392fe0adc06de1a1368ed4861138f565b111561194b5773146500cfd35b22e4a392fe0adc06de1a1368ed48600160006101000a81548173ffffffffffffffffffffffffffffffffffffffff021916908373ffffffffffffffffffffffffffffffffffffffff1602179055506119426040805190810160405280600b81526020017f6574685f72696e6b656279000000000000000000000000000000000000000000815250611b9d565b60019050611b9a565b600061196a73a2998efd205fb9d4b4963afb70778d6354ad3a4161138f565b1115611a0c5773a2998efd205fb9d4b4963afb70778d6354ad3a41600160006101000a81548173ffffffffffffffffffffffffffffffffffffffff021916908373ffffffffffffffffffffffffffffffffffffffff160217905550611a036040805190810160405280600a81526020017f6574685f676f65726c6900000000000000000000000000000000000000000000815250611b9d565b60019050611b9a565b6000611a2b736f485c8bf6fc43ea212e93bbf8ce046c7f1cb47561138f565b1115611a8f57736f485c8bf6fc43ea212e93bbf8ce046c7f1cb475600160006101000a81548173ffffffffffffffffffffffffffffffffffffffff021916908373ffffffffffffffffffffffffffffffffffffffff16021790555060019050611b9a565b6000611aae7320e12a1f859b3feae5fb2a0a32c18f5a65555bbf61138f565b1115611b12577320e12a1f859b3feae5fb2a0a32c18f5a65555bbf600160006101000a81548173ffffffffffffffffffffffffffffffffffffffff021916908373ffffffffffffffffffffffffffffffffffffffff16021790555060019050611b9a565b6000611b317351efaf4c8b3c9afbd5ab9f4bbc82784ab6ef8faa61138f565b1115611b95577351efaf4c8b3c9afbd5ab9f4bbc82784ab6ef8faa600160006101000a81548173ffffffffffffffffffffffffffffffffffffffff021916908373ffffffffffffffffffffffffffffffffffffffff16021790555060019050611b9a565b600090505b90565b8060029080519060200190611bb3929190611be9565b5050565b6040805190810160405280600073ffffffffffffffffffffffffffffffffffffffff1681526020016000151581525090565b828054600181600116156101000203166002900490600052602060002090601f016020900481019282601f10611c2a57805160ff1916838001178555611c58565b82800160010185558215611c58579182015b82811115611c57578251825591602001919060010190611c3c565b5b509050611c659190611c69565b5090565b611c8b91905b80821115611c87576000816000905550600101611c6f565b5090565b9056fea165627a7a7230582014b55307286308ebeb417aec8d487b9da3539257324c4465a246059b4e95b5460029",
  "source": "pragma solidity ^0.5.0;\nimport \"./oraclizeAPI_0.5.sol\";\n\ncontract BettingContract is usingOraclize\n{\n\n    address payable owner;\n    int public playerCount = 1;\n    uint public betAmount;\n    uint public initialBet; //Temperature set by the owner\n    string public location;\n    uint public temperature;\n    uint public timestamp;\n    event NewOraclizeQuery(string description);\n    event NewTemperature(string temperature);\n\n    struct Player {\n        address payable addr; //The address of their account\n        bool higher; //Whether their guess was higher than the owner's guess. True = higher, False = lower.\n    }\n\n    Player[] players;\n    Player[] winners;\n\n    //When called for, Oraclize needs to be called and the Total needs to be updated.\n    constructor(uint startTime, uint timestamp_, uint initial, string memory location_, uint betAmount_, address owner_) public payable\n    {\n        owner = address(uint160(owner_));\n        betAmount = betAmount_;\n        initialBet = initial;\n        location = location_;\n        timestamp = timestamp_;\n        OAR = OraclizeAddrResolverI(0x6f485C8BF6fc43eA212E93BBF8ce046C7f1cb475);\n        getWeather(startTime, location);\n    }\n\n    function AddPlayer(bool guessedHigher) public payable\n    {\n        if (msg.value != betAmount){\n            msg.sender.transfer(msg.value);\n        }\n        else{\n            //Since the owner is also counted, this playerCount starts at 1!\n            playerCount = playerCount + 1;\n\n            //Add player to a struct, and add it to the array.\n            Player memory player;\n            player.addr = msg.sender;\n            player.higher = guessedHigher;\n            players.push(player);\n        }\n    }\n\n    //Function that contains the actions of Oraclize.\n    function getWeather(uint _time, string memory searchstring) public\n    {\n        emit NewOraclizeQuery(\"Query was sent waiting for response....\");\n        oraclize_query(_time, \"WolframAlpha\", searchstring);\n    }\n\n\n    //This function will do everything needed to give the winnings to the winner of the bet.\n    function _callback(string memory _result) public\n    {\n        //if(msg.sender != oraclize_cbAddress()) revert();\n        emit NewTemperature(_result);\n        temperature = parseInt(_result);\n\n        if (initialBet == temperature){\n            //Send everything in the contract back to the owner, since he won!\n            owner.transfer(address(this).balance);\n        }\n        else{\n            if (initialBet > temperature) {\n                //Team higher wins\n                for (uint i = 0; i < players.length; i++) {\n                    if (players[i].higher == true){\n                        winners.push(players[i]);\n                    }\n                }\n            }\n            else{\n                //Team lower wins\n                for (uint i = 0; i < players.length; i++) {\n                    if (players[i].higher == false){\n                        winners.push(players[i]);\n                    }\n                }\n            }\n\n            for (uint i = 0; i < winners.length; i++){\n                winners[i].addr.transfer(address(this).balance / winners.length);\n            }\n        }\n    }\n}",
  "sourcePath": "/home/debreker/Dev/school/WeatherWars/contracts/BettingContract.sol",
  "compiler": {
    "name": "solc",
    "version": "0.5.0+commit.1d4f565a.Emscripten.clang"
  },
  "schemaVersion": "3.0.9",
  "updatedAt": "2019-06-13T16:28:06.984Z",
  "devdoc": {
    "methods": {}
  },
  "userdoc": {
    "methods": {}
  }
}