{
  "contractName": "BettingContract",
  "abi": [
    {
      "constant": false,
      "inputs": [
        {
          "name": "_myid",
          "type": "bytes32"
        },
        {
          "name": "_result",
          "type": "string"
        }
      ],
      "name": "__callback",
      "outputs": [],
      "payable": false,
      "stateMutability": "nonpayable",
      "type": "function"
    },
    {
      "constant": false,
      "inputs": [
        {
          "name": "_myid",
          "type": "bytes32"
        },
        {
          "name": "_result",
          "type": "string"
        },
        {
          "name": "_proof",
          "type": "bytes"
        }
      ],
      "name": "__callback",
      "outputs": [],
      "payable": false,
      "stateMutability": "nonpayable",
      "type": "function"
    },
    {
      "constant": true,
      "inputs": [],
      "name": "temperature",
      "outputs": [
        {
          "name": "",
          "type": "uint256"
        }
      ],
      "payable": false,
      "stateMutability": "view",
      "type": "function"
    },
    {
      "inputs": [
        {
          "name": "startTime",
          "type": "uint256"
        },
        {
          "name": "initial",
          "type": "uint256"
        }
      ],
      "payable": true,
      "stateMutability": "payable",
      "type": "constructor"
    },
    {
      "anonymous": false,
      "inputs": [
        {
          "indexed": false,
          "name": "description",
          "type": "string"
        }
      ],
      "name": "NewOraclizeQuery",
      "type": "event"
    },
    {
      "anonymous": false,
      "inputs": [
        {
          "indexed": false,
          "name": "temperature",
          "type": "string"
        }
      ],
      "name": "NewTemperature",
      "type": "event"
    },
    {
      "constant": true,
      "inputs": [
        {
          "name": "guessedHigher",
          "type": "bool"
        }
      ],
      "name": "readBetAmount",
      "outputs": [
        {
          "name": "",
          "type": "uint256"
        }
      ],
      "payable": false,
      "stateMutability": "view",
      "type": "function"
    },
    {
      "constant": false,
      "inputs": [
        {
          "name": "guessedHigher",
          "type": "bool"
        }
      ],
      "name": "AddPlayer",
      "outputs": [],
      "payable": true,
      "stateMutability": "payable",
      "type": "function"
    },
    {
      "constant": false,
      "inputs": [
        {
          "name": "_time",
          "type": "uint256"
        }
      ],
      "name": "getWeather",
      "outputs": [],
      "payable": false,
      "stateMutability": "nonpayable",
      "type": "function"
    },
    {
      "constant": false,
      "inputs": [
        {
          "name": "_result",
          "type": "string"
        }
      ],
      "name": "_callback",
      "outputs": [],
      "payable": false,
      "stateMutability": "nonpayable",
      "type": "function"
    }
  ],
  "bytecode": "0x6080604052600060065560405160408062002a63833981018060405260408110156200002a57600080fd5b81019080805190602001909291908051906020019092919050505033600560006101000a81548173ffffffffffffffffffffffffffffffffffffffff021916908373ffffffffffffffffffffffffffffffffffffffff1602179055503460078190555080600881905550736f485c8bf6fc43ea212e93bbf8ce046c7f1cb475600160006101000a81548173ffffffffffffffffffffffffffffffffffffffff021916908373ffffffffffffffffffffffffffffffffffffffff16021790555062000103826200010b640100000000026401000000009004565b505062000f54565b7f096835e36c2ccea88ff2b3aca87dfc938b977e52ea656873ff76a8dba50d4d346040518080602001828103825260278152602001807f5175657279207761732073656e742077616974696e6720666f7220726573706f81526020017f6e73652e2e2e2e0000000000000000000000000000000000000000000000000081525060400191505060405180910390a16200021f816040805190810160405280600c81526020017f576f6c6672616d416c70686100000000000000000000000000000000000000008152506040805190810160405280601881526020017f54656d706572617475726520696e20526f7474657264616d000000000000000081525062000223640100000000026401000000009004565b5050565b60008073ffffffffffffffffffffffffffffffffffffffff16600160009054906101000a900473ffffffffffffffffffffffffffffffffffffffff1673ffffffffffffffffffffffffffffffffffffffff161480620002bd57506000620002bb600160009054906101000a900473ffffffffffffffffffffffffffffffffffffffff1662000818640100000000026401000000009004565b145b15620002e057620002de600062000823640100000000026401000000009004565b505b600160009054906101000a900473ffffffffffffffffffffffffffffffffffffffff1673ffffffffffffffffffffffffffffffffffffffff166338cc48316040518163ffffffff167c0100000000000000000000000000000000000000000000000000000000028152600401602060405180830381600087803b1580156200036757600080fd5b505af11580156200037c573d6000803e3d6000fd5b505050506040513d60208110156200039357600080fd5b810190808051906020019092919050505073ffffffffffffffffffffffffffffffffffffffff166000809054906101000a900473ffffffffffffffffffffffffffffffffffffffff1673ffffffffffffffffffffffffffffffffffffffff16141515620004fe57600160009054906101000a900473ffffffffffffffffffffffffffffffffffffffff1673ffffffffffffffffffffffffffffffffffffffff166338cc48316040518163ffffffff167c0100000000000000000000000000000000000000000000000000000000028152600401602060405180830381600087803b1580156200048157600080fd5b505af115801562000496573d6000803e3d6000fd5b505050506040513d6020811015620004ad57600080fd5b81019080805190602001909291905050506000806101000a81548173ffffffffffffffffffffffffffffffffffffffff021916908373ffffffffffffffffffffffffffffffffffffffff1602179055505b60008060009054906101000a900473ffffffffffffffffffffffffffffffffffffffff1673ffffffffffffffffffffffffffffffffffffffff1663524f3889856040518263ffffffff167c01000000000000000000000000000000000000000000000000000000000281526004018080602001828103825283818151815260200191508051906020019080838360005b83811015620005ab5780820151818401526020810190506200058e565b50505050905090810190601f168015620005d95780820380516001836020036101000a031916815260200191505b5092505050602060405180830381600087803b158015620005f957600080fd5b505af11580156200060e573d6000803e3d6000fd5b505050506040513d60208110156200062557600080fd5b8101908080519060200190929190505050905062030d403a02670de0b6b3a7640000018111156200065e57600060010291505062000811565b6000809054906101000a900473ffffffffffffffffffffffffffffffffffffffff1673ffffffffffffffffffffffffffffffffffffffff1663adf59f99828787876040518563ffffffff167c0100000000000000000000000000000000000000000000000000000000028152600401808481526020018060200180602001838103835285818151815260200191508051906020019080838360005b8381101562000716578082015181840152602081019050620006f9565b50505050905090810190601f168015620007445780820380516001836020036101000a031916815260200191505b50838103825284818151815260200191508051906020019080838360005b838110156200077f57808201518184015260208101905062000762565b50505050905090810190601f168015620007ad5780820380516001836020036101000a031916815260200191505b50955050505050506020604051808303818588803b158015620007cf57600080fd5b505af1158015620007e4573d6000803e3d6000fd5b50505050506040513d6020811015620007fc57600080fd5b81019080805190602001909291905050509150505b9392505050565b6000813b9050919050565b60006200083e62000845640100000000026401000000009004565b9050919050565b60008062000876731d3b2638a7cc9f2cb3d298a3da7a90b67e5506ed62000818640100000000026401000000009004565b11156200092b57731d3b2638a7cc9f2cb3d298a3da7a90b67e5506ed600160006101000a81548173ffffffffffffffffffffffffffffffffffffffff021916908373ffffffffffffffffffffffffffffffffffffffff160217905550620009216040805190810160405280600b81526020017f6574685f6d61696e6e657400000000000000000000000000000000000000000081525062000e89640100000000026401000000009004565b6001905062000e86565b60006200095b73c03a2615d5efaf5f49f60b7bb6583eaec212fdf162000818640100000000026401000000009004565b111562000a105773c03a2615d5efaf5f49f60b7bb6583eaec212fdf1600160006101000a81548173ffffffffffffffffffffffffffffffffffffffff021916908373ffffffffffffffffffffffffffffffffffffffff16021790555062000a066040805190810160405280600c81526020017f6574685f726f707374656e33000000000000000000000000000000000000000081525062000e89640100000000026401000000009004565b6001905062000e86565b600062000a4073b7a07bcf2ba2f2703b24c0691b5278999c59ac7e62000818640100000000026401000000009004565b111562000af55773b7a07bcf2ba2f2703b24c0691b5278999c59ac7e600160006101000a81548173ffffffffffffffffffffffffffffffffffffffff021916908373ffffffffffffffffffffffffffffffffffffffff16021790555062000aeb6040805190810160405280600981526020017f6574685f6b6f76616e000000000000000000000000000000000000000000000081525062000e89640100000000026401000000009004565b6001905062000e86565b600062000b2573146500cfd35b22e4a392fe0adc06de1a1368ed4862000818640100000000026401000000009004565b111562000bda5773146500cfd35b22e4a392fe0adc06de1a1368ed48600160006101000a81548173ffffffffffffffffffffffffffffffffffffffff021916908373ffffffffffffffffffffffffffffffffffffffff16021790555062000bd06040805190810160405280600b81526020017f6574685f72696e6b65627900000000000000000000000000000000000000000081525062000e89640100000000026401000000009004565b6001905062000e86565b600062000c0a73a2998efd205fb9d4b4963afb70778d6354ad3a4162000818640100000000026401000000009004565b111562000cbf5773a2998efd205fb9d4b4963afb70778d6354ad3a41600160006101000a81548173ffffffffffffffffffffffffffffffffffffffff021916908373ffffffffffffffffffffffffffffffffffffffff16021790555062000cb56040805190810160405280600a81526020017f6574685f676f65726c690000000000000000000000000000000000000000000081525062000e89640100000000026401000000009004565b6001905062000e86565b600062000cef736f485c8bf6fc43ea212e93bbf8ce046c7f1cb47562000818640100000000026401000000009004565b111562000d5557736f485c8bf6fc43ea212e93bbf8ce046c7f1cb475600160006101000a81548173ffffffffffffffffffffffffffffffffffffffff021916908373ffffffffffffffffffffffffffffffffffffffff1602179055506001905062000e86565b600062000d857320e12a1f859b3feae5fb2a0a32c18f5a65555bbf62000818640100000000026401000000009004565b111562000deb577320e12a1f859b3feae5fb2a0a32c18f5a65555bbf600160006101000a81548173ffffffffffffffffffffffffffffffffffffffff021916908373ffffffffffffffffffffffffffffffffffffffff1602179055506001905062000e86565b600062000e1b7351efaf4c8b3c9afbd5ab9f4bbc82784ab6ef8faa62000818640100000000026401000000009004565b111562000e81577351efaf4c8b3c9afbd5ab9f4bbc82784ab6ef8faa600160006101000a81548173ffffffffffffffffffffffffffffffffffffffff021916908373ffffffffffffffffffffffffffffffffffffffff1602179055506001905062000e86565b600090505b90565b806002908051906020019062000ea192919062000ea5565b5050565b828054600181600116156101000203166002900490600052602060002090601f016020900481019282601f1062000ee857805160ff191683800117855562000f19565b8280016001018555821562000f19579182015b8281111562000f1857825182559160200191906001019062000efb565b5b50905062000f28919062000f2c565b5090565b62000f5191905b8082111562000f4d57600081600090555060010162000f33565b5090565b90565b611aff8062000f646000396000f3fe608060405260043610610083576000357c0100000000000000000000000000000000000000000000000000000000900463ffffffff16806327dc297e1461008857806338bbfa501461015a5780633a6a13a4146102c357806360c5a720146102f3578063891c91611461032e5780638ec0647014610359578063adccea1214610421575b600080fd5b34801561009457600080fd5b50610158600480360360408110156100ab57600080fd5b8101908080359060200190929190803590602001906401000000008111156100d257600080fd5b8201836020820111156100e457600080fd5b8035906020019184600183028401116401000000008311171561010657600080fd5b91908080601f016020809104026020016040519081016040528093929190818152602001838380828437600081840152601f19601f82011690508083019250505050505050919291929050505061044c565b005b34801561016657600080fd5b506102c16004803603606081101561017d57600080fd5b8101908080359060200190929190803590602001906401000000008111156101a457600080fd5b8201836020820111156101b657600080fd5b803590602001918460018302840111640100000000831117156101d857600080fd5b91908080601f016020809104026020016040519081016040528093929190818152602001838380828437600081840152601f19601f8201169050808301925050505050505091929192908035906020019064010000000081111561023b57600080fd5b82018360208201111561024d57600080fd5b8035906020019184600183028401116401000000008311171561026f57600080fd5b91908080601f016020809104026020016040519081016040528093929190818152602001838380828437600081840152601f19601f82011690508083019250505050505050919291929050505061048f565b005b6102f1600480360360208110156102d957600080fd5b81019080803515159060200190929190505050610494565b005b3480156102ff57600080fd5b5061032c6004803603602081101561031657600080fd5b81019080803590602001909291905050506105e9565b005b34801561033a57600080fd5b506103436106f0565b6040518082815260200191505060405180910390f35b34801561036557600080fd5b5061041f6004803603602081101561037c57600080fd5b810190808035906020019064010000000081111561039957600080fd5b8201836020820111156103ab57600080fd5b803590602001918460018302840111640100000000831117156103cd57600080fd5b91908080601f016020809104026020016040519081016040528093929190818152602001838380828437600081840152601f19601f8201169050808301925050505050505091929192905050506106fa565b005b34801561042d57600080fd5b5061043661087b565b6040518082815260200191505060405180910390f35b61048b828260006040519080825280601f01601f1916602001820160405280156104855781602001600182028038833980820191505090505b5061048f565b5050565b505050565b600754341415156104eb573373ffffffffffffffffffffffffffffffffffffffff166108fc349081150290604051600060405180830381858888f193505050501580156104e5573d6000803e3d6000fd5b506105e6565b6001600654016006819055506104ff6119fc565b33816000019073ffffffffffffffffffffffffffffffffffffffff16908173ffffffffffffffffffffffffffffffffffffffff168152505081816020019015159081151581525050600a8190806001815401808255809150509060018203906000526020600020016000909192909190915060008201518160000160006101000a81548173ffffffffffffffffffffffffffffffffffffffff021916908373ffffffffffffffffffffffffffffffffffffffff16021790555060208201518160000160146101000a81548160ff0219169083151502179055505050506105e434610881565b505b50565b7f096835e36c2ccea88ff2b3aca87dfc938b977e52ea656873ff76a8dba50d4d346040518080602001828103825260278152602001807f5175657279207761732073656e742077616974696e6720666f7220726573706f81526020017f6e73652e2e2e2e0000000000000000000000000000000000000000000000000081525060400191505060405180910390a16106ec816040805190810160405280600c81526020017f576f6c6672616d416c70686100000000000000000000000000000000000000008152506040805190810160405280601881526020017f54656d706572617475726520696e20526f7474657264616d0000000000000000815250610894565b5050565b6000600754905090565b610702610e4d565b73ffffffffffffffffffffffffffffffffffffffff163373ffffffffffffffffffffffffffffffffffffffff1614151561073b57600080fd5b7f738c4fab4f4c556f6f79d8da6d0302ddaf21484a09f30494d74d5ef496955f82816040518080602001828103825283818151815260200191508051906020019080838360005b8381101561079d578082015181840152602081019050610782565b50505050905090810190601f1680156107ca5780820380516001836020036101000a031916815260200191505b509250505060405180910390a16107e0816111c0565b600981905550600954600854141561087757600560009054906101000a900473ffffffffffffffffffffffffffffffffffffffff1673ffffffffffffffffffffffffffffffffffffffff166108fc3073ffffffffffffffffffffffffffffffffffffffff16319081150290604051600060405180830381858888f19350505050158015610871573d6000803e3d6000fd5b50610878565b5b50565b60095481565b8060076000828254019250508190555050565b60008073ffffffffffffffffffffffffffffffffffffffff16600160009054906101000a900473ffffffffffffffffffffffffffffffffffffffff1673ffffffffffffffffffffffffffffffffffffffff16148061091c5750600061091a600160009054906101000a900473ffffffffffffffffffffffffffffffffffffffff166111d4565b145b1561092d5761092b60006111df565b505b600160009054906101000a900473ffffffffffffffffffffffffffffffffffffffff1673ffffffffffffffffffffffffffffffffffffffff166338cc48316040518163ffffffff167c0100000000000000000000000000000000000000000000000000000000028152600401602060405180830381600087803b1580156109b357600080fd5b505af11580156109c7573d6000803e3d6000fd5b505050506040513d60208110156109dd57600080fd5b810190808051906020019092919050505073ffffffffffffffffffffffffffffffffffffffff166000809054906101000a900473ffffffffffffffffffffffffffffffffffffffff1673ffffffffffffffffffffffffffffffffffffffff16141515610b4457600160009054906101000a900473ffffffffffffffffffffffffffffffffffffffff1673ffffffffffffffffffffffffffffffffffffffff166338cc48316040518163ffffffff167c0100000000000000000000000000000000000000000000000000000000028152600401602060405180830381600087803b158015610ac957600080fd5b505af1158015610add573d6000803e3d6000fd5b505050506040513d6020811015610af357600080fd5b81019080805190602001909291905050506000806101000a81548173ffffffffffffffffffffffffffffffffffffffff021916908373ffffffffffffffffffffffffffffffffffffffff1602179055505b60008060009054906101000a900473ffffffffffffffffffffffffffffffffffffffff1673ffffffffffffffffffffffffffffffffffffffff1663524f3889856040518263ffffffff167c01000000000000000000000000000000000000000000000000000000000281526004018080602001828103825283818151815260200191508051906020019080838360005b83811015610bef578082015181840152602081019050610bd4565b50505050905090810190601f168015610c1c5780820380516001836020036101000a031916815260200191505b5092505050602060405180830381600087803b158015610c3b57600080fd5b505af1158015610c4f573d6000803e3d6000fd5b505050506040513d6020811015610c6557600080fd5b8101908080519060200190929190505050905062030d403a02670de0b6b3a764000001811115610c9c576000600102915050610e46565b6000809054906101000a900473ffffffffffffffffffffffffffffffffffffffff1673ffffffffffffffffffffffffffffffffffffffff1663adf59f99828787876040518563ffffffff167c0100000000000000000000000000000000000000000000000000000000028152600401808481526020018060200180602001838103835285818151815260200191508051906020019080838360005b83811015610d52578082015181840152602081019050610d37565b50505050905090810190601f168015610d7f5780820380516001836020036101000a031916815260200191505b50838103825284818151815260200191508051906020019080838360005b83811015610db8578082015181840152602081019050610d9d565b50505050905090810190601f168015610de55780820380516001836020036101000a031916815260200191505b50955050505050506020604051808303818588803b158015610e0657600080fd5b505af1158015610e1a573d6000803e3d6000fd5b50505050506040513d6020811015610e3157600080fd5b81019080805190602001909291905050509150505b9392505050565b60008073ffffffffffffffffffffffffffffffffffffffff16600160009054906101000a900473ffffffffffffffffffffffffffffffffffffffff1673ffffffffffffffffffffffffffffffffffffffff161480610ed557506000610ed3600160009054906101000a900473ffffffffffffffffffffffffffffffffffffffff166111d4565b145b15610ee657610ee460006111df565b505b600160009054906101000a900473ffffffffffffffffffffffffffffffffffffffff1673ffffffffffffffffffffffffffffffffffffffff166338cc48316040518163ffffffff167c0100000000000000000000000000000000000000000000000000000000028152600401602060405180830381600087803b158015610f6c57600080fd5b505af1158015610f80573d6000803e3d6000fd5b505050506040513d6020811015610f9657600080fd5b810190808051906020019092919050505073ffffffffffffffffffffffffffffffffffffffff166000809054906101000a900473ffffffffffffffffffffffffffffffffffffffff1673ffffffffffffffffffffffffffffffffffffffff161415156110fd57600160009054906101000a900473ffffffffffffffffffffffffffffffffffffffff1673ffffffffffffffffffffffffffffffffffffffff166338cc48316040518163ffffffff167c0100000000000000000000000000000000000000000000000000000000028152600401602060405180830381600087803b15801561108257600080fd5b505af1158015611096573d6000803e3d6000fd5b505050506040513d60208110156110ac57600080fd5b81019080805190602001909291905050506000806101000a81548173ffffffffffffffffffffffffffffffffffffffff021916908373ffffffffffffffffffffffffffffffffffffffff1602179055505b6000809054906101000a900473ffffffffffffffffffffffffffffffffffffffff1673ffffffffffffffffffffffffffffffffffffffff1663c281d19e6040518163ffffffff167c010000000000000000000000000000000000000000000000000000000002815260040160206040518083038186803b15801561118057600080fd5b505afa158015611194573d6000803e3d6000fd5b505050506040513d60208110156111aa57600080fd5b8101908080519060200190929190505050905090565b60006111cd8260006111f0565b9050919050565b6000813b9050919050565b60006111e961148b565b9050919050565b600060608390506000809050600080905060008090505b835181101561146c576030848281518110151561122057fe5b9060200101517f010000000000000000000000000000000000000000000000000000000000000090047f0100000000000000000000000000000000000000000000000000000000000000027f0100000000000000000000000000000000000000000000000000000000000000900460ff161015801561131e5750603984828151811015156112aa57fe5b9060200101517f010000000000000000000000000000000000000000000000000000000000000090047f0100000000000000000000000000000000000000000000000000000000000000027f0100000000000000000000000000000000000000000000000000000000000000900460ff1611155b156113d25781156113415760008614156113375761146c565b8580600190039650505b600a830292506030848281518110151561135757fe5b9060200101517f010000000000000000000000000000000000000000000000000000000000000090047f0100000000000000000000000000000000000000000000000000000000000000027f0100000000000000000000000000000000000000000000000000000000000000900460ff16038301925061145f565b602e84828151811015156113e257fe5b9060200101517f010000000000000000000000000000000000000000000000000000000000000090047f0100000000000000000000000000000000000000000000000000000000000000027f0100000000000000000000000000000000000000000000000000000000000000900460ff16141561145e57600191505b5b8080600101915050611207565b50600085111561147f5784600a0a820291505b81935050505092915050565b6000806114ab731d3b2638a7cc9f2cb3d298a3da7a90b67e5506ed6111d4565b111561154d57731d3b2638a7cc9f2cb3d298a3da7a90b67e5506ed600160006101000a81548173ffffffffffffffffffffffffffffffffffffffff021916908373ffffffffffffffffffffffffffffffffffffffff1602179055506115446040805190810160405280600b81526020017f6574685f6d61696e6e65740000000000000000000000000000000000000000008152506119e2565b600190506119df565b600061156c73c03a2615d5efaf5f49f60b7bb6583eaec212fdf16111d4565b111561160e5773c03a2615d5efaf5f49f60b7bb6583eaec212fdf1600160006101000a81548173ffffffffffffffffffffffffffffffffffffffff021916908373ffffffffffffffffffffffffffffffffffffffff1602179055506116056040805190810160405280600c81526020017f6574685f726f707374656e3300000000000000000000000000000000000000008152506119e2565b600190506119df565b600061162d73b7a07bcf2ba2f2703b24c0691b5278999c59ac7e6111d4565b11156116cf5773b7a07bcf2ba2f2703b24c0691b5278999c59ac7e600160006101000a81548173ffffffffffffffffffffffffffffffffffffffff021916908373ffffffffffffffffffffffffffffffffffffffff1602179055506116c66040805190810160405280600981526020017f6574685f6b6f76616e00000000000000000000000000000000000000000000008152506119e2565b600190506119df565b60006116ee73146500cfd35b22e4a392fe0adc06de1a1368ed486111d4565b11156117905773146500cfd35b22e4a392fe0adc06de1a1368ed48600160006101000a81548173ffffffffffffffffffffffffffffffffffffffff021916908373ffffffffffffffffffffffffffffffffffffffff1602179055506117876040805190810160405280600b81526020017f6574685f72696e6b6562790000000000000000000000000000000000000000008152506119e2565b600190506119df565b60006117af73a2998efd205fb9d4b4963afb70778d6354ad3a416111d4565b11156118515773a2998efd205fb9d4b4963afb70778d6354ad3a41600160006101000a81548173ffffffffffffffffffffffffffffffffffffffff021916908373ffffffffffffffffffffffffffffffffffffffff1602179055506118486040805190810160405280600a81526020017f6574685f676f65726c69000000000000000000000000000000000000000000008152506119e2565b600190506119df565b6000611870736f485c8bf6fc43ea212e93bbf8ce046c7f1cb4756111d4565b11156118d457736f485c8bf6fc43ea212e93bbf8ce046c7f1cb475600160006101000a81548173ffffffffffffffffffffffffffffffffffffffff021916908373ffffffffffffffffffffffffffffffffffffffff160217905550600190506119df565b60006118f37320e12a1f859b3feae5fb2a0a32c18f5a65555bbf6111d4565b1115611957577320e12a1f859b3feae5fb2a0a32c18f5a65555bbf600160006101000a81548173ffffffffffffffffffffffffffffffffffffffff021916908373ffffffffffffffffffffffffffffffffffffffff160217905550600190506119df565b60006119767351efaf4c8b3c9afbd5ab9f4bbc82784ab6ef8faa6111d4565b11156119da577351efaf4c8b3c9afbd5ab9f4bbc82784ab6ef8faa600160006101000a81548173ffffffffffffffffffffffffffffffffffffffff021916908373ffffffffffffffffffffffffffffffffffffffff160217905550600190506119df565b600090505b90565b80600290805190602001906119f8929190611a2e565b5050565b6040805190810160405280600073ffffffffffffffffffffffffffffffffffffffff1681526020016000151581525090565b828054600181600116156101000203166002900490600052602060002090601f016020900481019282601f10611a6f57805160ff1916838001178555611a9d565b82800160010185558215611a9d579182015b82811115611a9c578251825591602001919060010190611a81565b5b509050611aaa9190611aae565b5090565b611ad091905b80821115611acc576000816000905550600101611ab4565b5090565b9056fea165627a7a72305820fc0689252b8c4214a25086be3e59314d2a69939138fe671b577141ce41b750dc0029",
  "source": "pragma solidity ^0.5.0;\nimport \"./oraclizeAPI_0.5.sol\";\n\ncontract BettingContract is usingOraclize\n{\n\n    address payable owner;\n    uint playerCount = 0;\n    uint betAmount;\n    uint initialBet;\n\n    uint public temperature;\n    event NewOraclizeQuery(string description);\n    event NewTemperature(string temperature);\n\n    struct Player {\n        address payable addr; //The address of their account\n        bool higher; //Whether their guess was higher than the owner's guess. True = higher, False = lower.\n    }\n\n    Player[] players;\n\n    //When called for, Oraclize needs to be called and the Total needs to be updated.\n    constructor(uint startTime, uint initial) public payable\n    {\n        owner = msg.sender;\n        betAmount = msg.value;\n        initialBet = initial;\n\n        OAR = OraclizeAddrResolverI(0x6f485C8BF6fc43eA212E93BBF8ce046C7f1cb475);\n        getWeather(startTime);\n\n    }\n\n    function readBetAmount() public view returns (uint)\n    {\n        return betAmount;\n    }\n\n    function AddPlayer(bool guessedHigher) public payable\n    {\n        if (msg.value != betAmount){\n            msg.sender.transfer(msg.value);\n        }\n        else{\n\n            //Since the owner is also counted, this playerCount starts at 1!\n            playerCount = playerCount + 1;\n\n            //Add player to a struct, and add it to the array.\n            Player memory player;\n            player.addr = msg.sender;\n            player.higher = guessedHigher; //TODO! Add all Trues to a separate array, and all False to a separate array.\n            players.push(player);\n\n            //Update the Total for each player added.\n            updateTotalReceived(msg.value);\n        }\n    }\n\n    function updateTotalReceived(uint amount) internal {\n        betAmount += amount;\n    }\n\n\n    //Function that contains the actions of Oraclize.\n    function getWeather(uint _time) public\n    {\n        emit NewOraclizeQuery(\"Query was sent waiting for response....\");\n        oraclize_query(_time, \"WolframAlpha\",  \"Temperature in Rotterdam\");\n    }\n\n\n    //This function will do everything needed to give the winnings to the winner of the bet.\n    function _callback(string memory _result) public\n    {\n        //totalReceived should get sent to the winner(s).\n        //Thus, the winner(s) need(s) to be chosen.\n\n        //This results in a loop if the owner did not win.\n\n        if(msg.sender != oraclize_cbAddress()) revert();\n        emit NewTemperature(_result);\n        temperature = parseInt(_result);\n\n        if (initialBet == temperature){\n            //Send everything in the contract back to the owner, since he won!\n            owner.transfer(address(this).balance);\n        }\n        else{\n            //\n            /*If initialBet > temperature\n                for each player in higher {\n                    msg.sender.transfer(this.balance / higher.Length)\n                }\n            else\n                {\n                for each player in lower {\n                msg.sender.transfer(this.balance / higher.Length)\n                }\n            }\n\n\n            */\n        }\n    }\n}\n",
  "sourcePath": "/home/debreker/Dev/school/WeatherWars/contracts/BettingContract.sol",
  "compiler": {
    "name": "solc",
    "version": "0.5.0+commit.1d4f565a.Emscripten.clang"
  },
  "schemaVersion": "3.0.9",
  "updatedAt": "2019-06-05T06:15:28.356Z",
  "devdoc": {
    "methods": {}
  },
  "userdoc": {
    "methods": {}
  }
}