{
  "contractName": "BettingContract",
  "abi": [
    {
      "constant": true,
      "inputs": [],
      "name": "initialBet",
      "outputs": [
        {
          "name": "",
          "type": "uint256"
        }
      ],
      "payable": false,
      "stateMutability": "view",
      "type": "function"
    },
    {
      "constant": true,
      "inputs": [],
      "name": "playerCount",
      "outputs": [
        {
          "name": "",
          "type": "int256"
        }
      ],
      "payable": false,
      "stateMutability": "view",
      "type": "function"
    },
    {
      "constant": true,
      "inputs": [],
      "name": "location",
      "outputs": [
        {
          "name": "",
          "type": "string"
        }
      ],
      "payable": false,
      "stateMutability": "view",
      "type": "function"
    },
    {
      "constant": true,
      "inputs": [],
      "name": "weatherResult",
      "outputs": [
        {
          "name": "",
          "type": "uint256"
        }
      ],
      "payable": false,
      "stateMutability": "view",
      "type": "function"
    },
    {
      "constant": true,
      "inputs": [
        {
          "name": "",
          "type": "uint256"
        }
      ],
      "name": "winners",
      "outputs": [
        {
          "name": "addr",
          "type": "address"
        },
        {
          "name": "higher",
          "type": "bool"
        }
      ],
      "payable": false,
      "stateMutability": "view",
      "type": "function"
    },
    {
      "constant": true,
      "inputs": [],
      "name": "timestamp",
      "outputs": [
        {
          "name": "",
          "type": "uint256"
        }
      ],
      "payable": false,
      "stateMutability": "view",
      "type": "function"
    },
    {
      "constant": true,
      "inputs": [],
      "name": "betAmount",
      "outputs": [
        {
          "name": "",
          "type": "uint256"
        }
      ],
      "payable": false,
      "stateMutability": "view",
      "type": "function"
    },
    {
      "constant": true,
      "inputs": [
        {
          "name": "",
          "type": "uint256"
        }
      ],
      "name": "players",
      "outputs": [
        {
          "name": "addr",
          "type": "address"
        },
        {
          "name": "higher",
          "type": "bool"
        }
      ],
      "payable": false,
      "stateMutability": "view",
      "type": "function"
    },
    {
      "inputs": [
        {
          "name": "startTime",
          "type": "uint256"
        },
        {
          "name": "timestamp_",
          "type": "uint256"
        },
        {
          "name": "initial",
          "type": "uint256"
        },
        {
          "name": "location_",
          "type": "string"
        },
        {
          "name": "betAmount_",
          "type": "uint256"
        },
        {
          "name": "owner_",
          "type": "address"
        }
      ],
      "payable": true,
      "stateMutability": "payable",
      "type": "constructor"
    },
    {
      "anonymous": false,
      "inputs": [
        {
          "indexed": false,
          "name": "description",
          "type": "string"
        }
      ],
      "name": "NewOraclizeQuery",
      "type": "event"
    },
    {
      "anonymous": false,
      "inputs": [
        {
          "indexed": false,
          "name": "temperature",
          "type": "string"
        }
      ],
      "name": "NewTemperature",
      "type": "event"
    },
    {
      "constant": false,
      "inputs": [
        {
          "name": "guessedHigher",
          "type": "bool"
        }
      ],
      "name": "AddPlayer",
      "outputs": [],
      "payable": true,
      "stateMutability": "payable",
      "type": "function"
    },
    {
      "constant": false,
      "inputs": [
        {
          "name": "_myid",
          "type": "bytes32"
        },
        {
          "name": "_result",
          "type": "string"
        }
      ],
      "name": "__callback",
      "outputs": [],
      "payable": false,
      "stateMutability": "nonpayable",
      "type": "function"
    },
    {
      "constant": false,
      "inputs": [
        {
          "name": "_myid",
          "type": "bytes32"
        },
        {
          "name": "_result",
          "type": "string"
        },
        {
          "name": "_proof",
          "type": "bytes"
        }
      ],
      "name": "__callback",
      "outputs": [],
      "payable": false,
      "stateMutability": "nonpayable",
      "type": "function"
    }
  ],
  "bytecode": "0x608060405260016006556040516200255438038062002554833981018060405260c08110156200002e57600080fd5b8101908080519060200190929190805190602001909291908051906020019092919080516401000000008111156200006557600080fd5b828101905060208101848111156200007c57600080fd5b81518560018202830111640100000000821117156200009a57600080fd5b5050929190602001805190602001909291908051906020019092919050505080600560006101000a81548173ffffffffffffffffffffffffffffffffffffffff021916908373ffffffffffffffffffffffffffffffffffffffff160217905550816007819055508360088190555082600990805190602001906200012092919062001460565b5084600a81905550736f485c8bf6fc43ea212e93bbf8ce046c7f1cb475600160006101000a81548173ffffffffffffffffffffffffffffffffffffffff021916908373ffffffffffffffffffffffffffffffffffffffff1602179055507f096835e36c2ccea88ff2b3aca87dfc938b977e52ea656873ff76a8dba50d4d346040518080602001828103825260278152602001807f5175657279207761732073656e742077616974696e6720666f7220726573706f81526020017f6e73652e2e2e2e0000000000000000000000000000000000000000000000000081525060400191505060405180910390a162000349866040805190810160405280600c81526020017f576f6c6672616d416c7068610000000000000000000000000000000000000000815250620003346040805190810160405280600f81526020017f54656d706572617475726520696e20000000000000000000000000000000000081525060098054600181600116156101000203166002900480601f0160208091040260200160405190810160405280929190818152602001828054600181600116156101000203166002900480156200031a5780601f10620002ee576101008083540402835291602001916200031a565b820191906000526020600020905b815481529060010190602001808311620002fc57829003601f168201915b505050505062000356640100000000026401000000009004565b620003ae640100000000026401000000009004565b505050505050506200150f565b6060620003a68383602060405190810160405280600081525060206040519081016040528060008152506020604051908101604052806000815250620009a3640100000000026401000000009004565b905092915050565b60008073ffffffffffffffffffffffffffffffffffffffff16600160009054906101000a900473ffffffffffffffffffffffffffffffffffffffff1673ffffffffffffffffffffffffffffffffffffffff161480620004485750600062000446600160009054906101000a900473ffffffffffffffffffffffffffffffffffffffff1662000dd3640100000000026401000000009004565b145b156200046b5762000469600062000dde640100000000026401000000009004565b505b600160009054906101000a900473ffffffffffffffffffffffffffffffffffffffff1673ffffffffffffffffffffffffffffffffffffffff166338cc48316040518163ffffffff167c0100000000000000000000000000000000000000000000000000000000028152600401602060405180830381600087803b158015620004f257600080fd5b505af115801562000507573d6000803e3d6000fd5b505050506040513d60208110156200051e57600080fd5b810190808051906020019092919050505073ffffffffffffffffffffffffffffffffffffffff166000809054906101000a900473ffffffffffffffffffffffffffffffffffffffff1673ffffffffffffffffffffffffffffffffffffffff161415156200068957600160009054906101000a900473ffffffffffffffffffffffffffffffffffffffff1673ffffffffffffffffffffffffffffffffffffffff166338cc48316040518163ffffffff167c0100000000000000000000000000000000000000000000000000000000028152600401602060405180830381600087803b1580156200060c57600080fd5b505af115801562000621573d6000803e3d6000fd5b505050506040513d60208110156200063857600080fd5b81019080805190602001909291905050506000806101000a81548173ffffffffffffffffffffffffffffffffffffffff021916908373ffffffffffffffffffffffffffffffffffffffff1602179055505b60008060009054906101000a900473ffffffffffffffffffffffffffffffffffffffff1673ffffffffffffffffffffffffffffffffffffffff1663524f3889856040518263ffffffff167c01000000000000000000000000000000000000000000000000000000000281526004018080602001828103825283818151815260200191508051906020019080838360005b838110156200073657808201518184015260208101905062000719565b50505050905090810190601f168015620007645780820380516001836020036101000a031916815260200191505b5092505050602060405180830381600087803b1580156200078457600080fd5b505af115801562000799573d6000803e3d6000fd5b505050506040513d6020811015620007b057600080fd5b8101908080519060200190929190505050905062030d403a02670de0b6b3a764000001811115620007e95760006001029150506200099c565b6000809054906101000a900473ffffffffffffffffffffffffffffffffffffffff1673ffffffffffffffffffffffffffffffffffffffff1663adf59f99828787876040518563ffffffff167c0100000000000000000000000000000000000000000000000000000000028152600401808481526020018060200180602001838103835285818151815260200191508051906020019080838360005b83811015620008a157808201518184015260208101905062000884565b50505050905090810190601f168015620008cf5780820380516001836020036101000a031916815260200191505b50838103825284818151815260200191508051906020019080838360005b838110156200090a578082015181840152602081019050620008ed565b50505050905090810190601f168015620009385780820380516001836020036101000a031916815260200191505b50955050505050506020604051808303818588803b1580156200095a57600080fd5b505af11580156200096f573d6000803e3d6000fd5b50505050506040513d60208110156200098757600080fd5b81019080805190602001909291905050509150505b9392505050565b6060808690506060869050606086905060608690506060869050606081518351855187518951010101016040519080825280601f01601f19166020018201604052801562000a005781602001600182028038833980820191505090505b509050606081905060008090506000809050600090505b885181101562000ace57888181518110151562000a3057fe5b9060200101517f010000000000000000000000000000000000000000000000000000000000000090047f010000000000000000000000000000000000000000000000000000000000000002838380600101945081518110151562000a9057fe5b9060200101907effffffffffffffffffffffffffffffffffffffffffffffffffffffffffffff1916908160001a905350808060010191505062000a17565b600090505b875181101562000b8a57878181518110151562000aec57fe5b9060200101517f010000000000000000000000000000000000000000000000000000000000000090047f010000000000000000000000000000000000000000000000000000000000000002838380600101945081518110151562000b4c57fe5b9060200101907effffffffffffffffffffffffffffffffffffffffffffffffffffffffffffff1916908160001a905350808060010191505062000ad3565b600090505b865181101562000c4657868181518110151562000ba857fe5b9060200101517f010000000000000000000000000000000000000000000000000000000000000090047f010000000000000000000000000000000000000000000000000000000000000002838380600101945081518110151562000c0857fe5b9060200101907effffffffffffffffffffffffffffffffffffffffffffffffffffffffffffff1916908160001a905350808060010191505062000b8f565b600090505b855181101562000d0257858181518110151562000c6457fe5b9060200101517f010000000000000000000000000000000000000000000000000000000000000090047f010000000000000000000000000000000000000000000000000000000000000002838380600101945081518110151562000cc457fe5b9060200101907effffffffffffffffffffffffffffffffffffffffffffffffffffffffffffff1916908160001a905350808060010191505062000c4b565b600090505b845181101562000dbe57848181518110151562000d2057fe5b9060200101517f010000000000000000000000000000000000000000000000000000000000000090047f010000000000000000000000000000000000000000000000000000000000000002838380600101945081518110151562000d8057fe5b9060200101907effffffffffffffffffffffffffffffffffffffffffffffffffffffffffffff1916908160001a905350808060010191505062000d07565b82995050505050505050505095945050505050565b6000813b9050919050565b600062000df962000e00640100000000026401000000009004565b9050919050565b60008062000e31731d3b2638a7cc9f2cb3d298a3da7a90b67e5506ed62000dd3640100000000026401000000009004565b111562000ee657731d3b2638a7cc9f2cb3d298a3da7a90b67e5506ed600160006101000a81548173ffffffffffffffffffffffffffffffffffffffff021916908373ffffffffffffffffffffffffffffffffffffffff16021790555062000edc6040805190810160405280600b81526020017f6574685f6d61696e6e657400000000000000000000000000000000000000000081525062001444640100000000026401000000009004565b6001905062001441565b600062000f1673c03a2615d5efaf5f49f60b7bb6583eaec212fdf162000dd3640100000000026401000000009004565b111562000fcb5773c03a2615d5efaf5f49f60b7bb6583eaec212fdf1600160006101000a81548173ffffffffffffffffffffffffffffffffffffffff021916908373ffffffffffffffffffffffffffffffffffffffff16021790555062000fc16040805190810160405280600c81526020017f6574685f726f707374656e33000000000000000000000000000000000000000081525062001444640100000000026401000000009004565b6001905062001441565b600062000ffb73b7a07bcf2ba2f2703b24c0691b5278999c59ac7e62000dd3640100000000026401000000009004565b1115620010b05773b7a07bcf2ba2f2703b24c0691b5278999c59ac7e600160006101000a81548173ffffffffffffffffffffffffffffffffffffffff021916908373ffffffffffffffffffffffffffffffffffffffff160217905550620010a66040805190810160405280600981526020017f6574685f6b6f76616e000000000000000000000000000000000000000000000081525062001444640100000000026401000000009004565b6001905062001441565b6000620010e073146500cfd35b22e4a392fe0adc06de1a1368ed4862000dd3640100000000026401000000009004565b1115620011955773146500cfd35b22e4a392fe0adc06de1a1368ed48600160006101000a81548173ffffffffffffffffffffffffffffffffffffffff021916908373ffffffffffffffffffffffffffffffffffffffff1602179055506200118b6040805190810160405280600b81526020017f6574685f72696e6b65627900000000000000000000000000000000000000000081525062001444640100000000026401000000009004565b6001905062001441565b6000620011c573a2998efd205fb9d4b4963afb70778d6354ad3a4162000dd3640100000000026401000000009004565b11156200127a5773a2998efd205fb9d4b4963afb70778d6354ad3a41600160006101000a81548173ffffffffffffffffffffffffffffffffffffffff021916908373ffffffffffffffffffffffffffffffffffffffff160217905550620012706040805190810160405280600a81526020017f6574685f676f65726c690000000000000000000000000000000000000000000081525062001444640100000000026401000000009004565b6001905062001441565b6000620012aa736f485c8bf6fc43ea212e93bbf8ce046c7f1cb47562000dd3640100000000026401000000009004565b11156200131057736f485c8bf6fc43ea212e93bbf8ce046c7f1cb475600160006101000a81548173ffffffffffffffffffffffffffffffffffffffff021916908373ffffffffffffffffffffffffffffffffffffffff1602179055506001905062001441565b6000620013407320e12a1f859b3feae5fb2a0a32c18f5a65555bbf62000dd3640100000000026401000000009004565b1115620013a6577320e12a1f859b3feae5fb2a0a32c18f5a65555bbf600160006101000a81548173ffffffffffffffffffffffffffffffffffffffff021916908373ffffffffffffffffffffffffffffffffffffffff1602179055506001905062001441565b6000620013d67351efaf4c8b3c9afbd5ab9f4bbc82784ab6ef8faa62000dd3640100000000026401000000009004565b11156200143c577351efaf4c8b3c9afbd5ab9f4bbc82784ab6ef8faa600160006101000a81548173ffffffffffffffffffffffffffffffffffffffff021916908373ffffffffffffffffffffffffffffffffffffffff1602179055506001905062001441565b600090505b90565b80600290805190602001906200145c92919062001460565b5050565b828054600181600116156101000203166002900490600052602060002090601f016020900481019282601f10620014a357805160ff1916838001178555620014d4565b82800160010185558215620014d4579182015b82811115620014d3578251825591602001919060010190620014b6565b5b509050620014e39190620014e7565b5090565b6200150c91905b8082111562001508576000816000905550600101620014ee565b5090565b90565b611035806200151f6000396000f3fe6080604052600436106100af576000357c0100000000000000000000000000000000000000000000000000000000900463ffffffff1680631d73c64c146100b457806327dc297e146100df578063302bcc57146101b157806338bbfa50146101dc5780633a6a13a414610345578063516f279e146103755780638ee0519514610405578063a2fb117514610430578063b80777ea146104b6578063d24257c0146104e1578063f71d96cb1461050c575b600080fd5b3480156100c057600080fd5b506100c9610592565b6040518082815260200191505060405180910390f35b3480156100eb57600080fd5b506101af6004803603604081101561010257600080fd5b81019080803590602001909291908035906020019064010000000081111561012957600080fd5b82018360208201111561013b57600080fd5b8035906020019184600183028401116401000000008311171561015d57600080fd5b91908080601f016020809104026020016040519081016040528093929190818152602001838380828437600081840152601f19601f820116905080830192505050505050509192919290505050610598565b005b3480156101bd57600080fd5b506101c661064f565b6040518082815260200191505060405180910390f35b3480156101e857600080fd5b50610343600480360360608110156101ff57600080fd5b81019080803590602001909291908035906020019064010000000081111561022657600080fd5b82018360208201111561023857600080fd5b8035906020019184600183028401116401000000008311171561025a57600080fd5b91908080601f016020809104026020016040519081016040528093929190818152602001838380828437600081840152601f19601f820116905080830192505050505050509192919290803590602001906401000000008111156102bd57600080fd5b8201836020820111156102cf57600080fd5b803590602001918460018302840111640100000000831117156102f157600080fd5b91908080601f016020809104026020016040519081016040528093929190818152602001838380828437600081840152601f19601f820116905080830192505050505050509192919290505050610655565b005b6103736004803603602081101561035b57600080fd5b8101908080351515906020019092919050505061065a565b005b34801561038157600080fd5b5061038a6107ed565b6040518080602001828103825283818151815260200191508051906020019080838360005b838110156103ca5780820151818401526020810190506103af565b50505050905090810190601f1680156103f75780820380516001836020036101000a031916815260200191505b509250505060405180910390f35b34801561041157600080fd5b5061041a61088b565b6040518082815260200191505060405180910390f35b34801561043c57600080fd5b506104696004803603602081101561045357600080fd5b8101908080359060200190929190505050610891565b604051808373ffffffffffffffffffffffffffffffffffffffff1673ffffffffffffffffffffffffffffffffffffffff168152602001821515151581526020019250505060405180910390f35b3480156104c257600080fd5b506104cb6108ed565b6040518082815260200191505060405180910390f35b3480156104ed57600080fd5b506104f66108f3565b6040518082815260200191505060405180910390f35b34801561051857600080fd5b506105456004803603602081101561052f57600080fd5b81019080803590602001909291905050506108f9565b604051808373ffffffffffffffffffffffffffffffffffffffff1673ffffffffffffffffffffffffffffffffffffffff168152602001821515151581526020019250505060405180910390f35b60085481565b7f738c4fab4f4c556f6f79d8da6d0302ddaf21484a09f30494d74d5ef496955f82816040518080602001828103825283818151815260200191508051906020019080838360005b838110156105fa5780820151818401526020810190506105df565b50505050905090810190601f1680156106275780820380516001836020036101000a031916815260200191505b509250505060405180910390a161063d81610955565b600b8190555061064b610969565b5050565b60065481565b505050565b600754341415156106f9576040517f08c379a00000000000000000000000000000000000000000000000000000000081526004018080602001828103825260338152602001807f416d6f756e742073656e74206e6f74207468652073616d65206173207468652081526020017f72657175697265642062657420616d6f756e740000000000000000000000000081525060400191505060405180910390fd5b60016006540160068190555061070d610fd7565b33816000019073ffffffffffffffffffffffffffffffffffffffff16908173ffffffffffffffffffffffffffffffffffffffff168152505081816020019015159081151581525050600c8190806001815401808255809150509060018203906000526020600020016000909192909190915060008201518160000160006101000a81548173ffffffffffffffffffffffffffffffffffffffff021916908373ffffffffffffffffffffffffffffffffffffffff16021790555060208201518160000160146101000a81548160ff0219169083151502179055505050505050565b60098054600181600116156101000203166002900480601f0160208091040260200160405190810160405280929190818152602001828054600181600116156101000203166002900480156108835780601f1061085857610100808354040283529160200191610883565b820191906000526020600020905b81548152906001019060200180831161086657829003601f168201915b505050505081565b600b5481565b600d818154811015156108a057fe5b906000526020600020016000915090508060000160009054906101000a900473ffffffffffffffffffffffffffffffffffffffff16908060000160149054906101000a900460ff16905082565b600a5481565b60075481565b600c8181548110151561090857fe5b906000526020600020016000915090508060000160009054906101000a900473ffffffffffffffffffffffffffffffffffffffff16908060000160149054906101000a900460ff16905082565b6000610962826000610d3c565b9050919050565b600b5460085414156109fa57600560009054906101000a900473ffffffffffffffffffffffffffffffffffffffff1673ffffffffffffffffffffffffffffffffffffffff166108fc3073ffffffffffffffffffffffffffffffffffffffff16319081150290604051600060405180830381858888f193505050501580156109f4573d6000803e3d6000fd5b50610d3a565b600b546008541015610b3c5760008090505b600c80549050811015610b365760011515600c82815481101515610a2c57fe5b9060005260206000200160000160149054906101000a900460ff1615151415610b2957600d600c82815481101515610a6057fe5b906000526020600020019080600181540180825580915050906001820390600052602060002001600090919290919091506000820160009054906101000a900473ffffffffffffffffffffffffffffffffffffffff168160000160006101000a81548173ffffffffffffffffffffffffffffffffffffffff021916908373ffffffffffffffffffffffffffffffffffffffff1602179055506000820160149054906101000a900460ff168160000160146101000a81548160ff0219169083151502179055505050505b8080600101915050610a0c565b50610c6e565b60008090505b600c80549050811015610c6c5760001515600c82815481101515610b6257fe5b9060005260206000200160000160149054906101000a900460ff1615151415610c5f57600d600c82815481101515610b9657fe5b906000526020600020019080600181540180825580915050906001820390600052602060002001600090919290919091506000820160009054906101000a900473ffffffffffffffffffffffffffffffffffffffff168160000160006101000a81548173ffffffffffffffffffffffffffffffffffffffff021916908373ffffffffffffffffffffffffffffffffffffffff1602179055506000820160149054906101000a900460ff168160000160146101000a81548160ff0219169083151502179055505050505b8080600101915050610b42565b505b60008090505b600d80549050811015610d3857600d81815481101515610c9057fe5b9060005260206000200160000160009054906101000a900473ffffffffffffffffffffffffffffffffffffffff1673ffffffffffffffffffffffffffffffffffffffff166108fc600d805490503073ffffffffffffffffffffffffffffffffffffffff1631811515610cfe57fe5b049081150290604051600060405180830381858888f19350505050158015610d2a573d6000803e3d6000fd5b508080600101915050610c74565b505b565b600060608390506000809050600080905060008090505b8351811015610fb85760308482815181101515610d6c57fe5b9060200101517f010000000000000000000000000000000000000000000000000000000000000090047f0100000000000000000000000000000000000000000000000000000000000000027f0100000000000000000000000000000000000000000000000000000000000000900460ff1610158015610e6a575060398482815181101515610df657fe5b9060200101517f010000000000000000000000000000000000000000000000000000000000000090047f0100000000000000000000000000000000000000000000000000000000000000027f0100000000000000000000000000000000000000000000000000000000000000900460ff1611155b15610f1e578115610e8d576000861415610e8357610fb8565b8580600190039650505b600a8302925060308482815181101515610ea357fe5b9060200101517f010000000000000000000000000000000000000000000000000000000000000090047f0100000000000000000000000000000000000000000000000000000000000000027f0100000000000000000000000000000000000000000000000000000000000000900460ff160383019250610fab565b602e8482815181101515610f2e57fe5b9060200101517f010000000000000000000000000000000000000000000000000000000000000090047f0100000000000000000000000000000000000000000000000000000000000000027f0100000000000000000000000000000000000000000000000000000000000000900460ff161415610faa57600191505b5b8080600101915050610d53565b506000851115610fcb5784600a0a820291505b81935050505092915050565b6040805190810160405280600073ffffffffffffffffffffffffffffffffffffffff168152602001600015158152509056fea165627a7a72305820dc5eb58c61aeed4d4a967fc1f98c769bae8913482cb6019c720437cdf34780c80029",
  "source": "pragma solidity ^0.5.0;\nimport './oraclizeAPI_0.5.sol';\n\ncontract BettingContract is usingOraclize\n{\n\n    address payable owner;\n    int public playerCount = 1;\n    uint public betAmount;\n    uint public initialBet; //Temperature set by the owner\n    string public location;\n    uint public timestamp;\n    uint public weatherResult;\n    event NewOraclizeQuery(string description);\n    event NewTemperature(string temperature);\n\n    struct Player {\n        address payable addr; //The address of their account\n        bool higher; //Whether their guess was higher than the owner's guess. True = higher, False = lower.\n    }\n\n    Player[] public players;\n    Player[] public winners;\n\n    //When called for, Oraclize needs to be called and the Total needs to be updated.\n    constructor(uint startTime, uint timestamp_, uint initial, string memory location_, uint betAmount_, address owner_) public payable\n    {\n        owner = address(uint160(owner_));\n        betAmount = betAmount_;\n        initialBet = initial;\n        location = location_;\n        timestamp = timestamp_;\n        OAR = OraclizeAddrResolverI(0x6f485C8BF6fc43eA212E93BBF8ce046C7f1cb475);\n        emit NewOraclizeQuery(\"Query was sent waiting for response....\");\n        oraclize_query(startTime, \"WolframAlpha\", strConcat(\"Temperature in \", location));\n    }\n\n    function AddPlayer(bool guessedHigher) public payable\n    {\n        if (msg.value != betAmount){\n            revert(\"Amount sent not the same as the required bet amount\");\n        }\n        else{\n            //Since the owner is also counted, this playerCount starts at 1!\n            playerCount = playerCount + 1;\n\n            //Add player to a struct, and add it to the array.\n            Player memory player;\n            player.addr = msg.sender;\n            player.higher = guessedHigher;\n            players.push(player);\n        }\n    }\n\n\n    //This function will do everything needed to give the winnings to the winner of the bet.\n    function __callback(bytes32 _myid, string memory _result) public\n    {\n        //if(msg.sender != oraclize_cbAddress()) revert();\n        emit NewTemperature(_result);\n        weatherResult = parseInt(_result);\n        getWinners();\n    }\n\n    function getWinners() internal {\n        if (initialBet == weatherResult){\n            //Send everything in the contract back to the owner, since he won!\n            owner.transfer(address(this).balance);\n        }\n        else{\n            if (initialBet < weatherResult) {\n                //Team higher wins\n                for (uint i = 0; i < players.length; i++) {\n                    if (players[i].higher == true){\n                        winners.push(players[i]);\n                    }\n                }\n            }\n            else{\n                //Team lower wins\n                for (uint i = 0; i < players.length; i++) {\n                    if (players[i].higher == false){\n                        winners.push(players[i]);\n                    }\n                }\n            }\n\n            for (uint i = 0; i < winners.length; i++){\n                winners[i].addr.transfer(address(this).balance / winners.length);\n            }\n        }\n    }\n}",
  "sourcePath": "/home/debreker/Dev/school/WeatherWars/contracts/BettingContract.sol",
  "compiler": {
    "name": "solc",
    "version": "0.5.0+commit.1d4f565a.Emscripten.clang"
  },
  "schemaVersion": "3.0.9",
  "updatedAt": "2019-06-14T22:10:23.252Z",
  "devdoc": {
    "methods": {}
  },
  "userdoc": {
    "methods": {}
  }
}