{
  "contractName": "WeatherBet",
  "abi": [
    {
      "constant": true,
      "inputs": [],
      "name": "initialBet",
      "outputs": [
        {
          "name": "",
          "type": "uint256"
        }
      ],
      "payable": false,
      "stateMutability": "view",
      "type": "function"
    },
    {
      "constant": true,
      "inputs": [],
      "name": "player2",
      "outputs": [
        {
          "name": "",
          "type": "address"
        }
      ],
      "payable": false,
      "stateMutability": "view",
      "type": "function"
    },
    {
      "constant": true,
      "inputs": [],
      "name": "owner",
      "outputs": [
        {
          "name": "",
          "type": "address"
        }
      ],
      "payable": false,
      "stateMutability": "view",
      "type": "function"
    },
    {
      "constant": true,
      "inputs": [],
      "name": "temperature",
      "outputs": [
        {
          "name": "",
          "type": "uint256"
        }
      ],
      "payable": false,
      "stateMutability": "view",
      "type": "function"
    },
    {
      "inputs": [
        {
          "name": "startTime",
          "type": "uint256"
        }
      ],
      "payable": true,
      "stateMutability": "payable",
      "type": "constructor"
    },
    {
      "anonymous": false,
      "inputs": [
        {
          "indexed": false,
          "name": "description",
          "type": "string"
        }
      ],
      "name": "NewOraclizeQuery",
      "type": "event"
    },
    {
      "anonymous": false,
      "inputs": [
        {
          "indexed": false,
          "name": "temperature",
          "type": "string"
        }
      ],
      "name": "NewTemperature",
      "type": "event"
    },
    {
      "constant": false,
      "inputs": [],
      "name": "addPlayer2",
      "outputs": [],
      "payable": true,
      "stateMutability": "payable",
      "type": "function"
    },
    {
      "constant": false,
      "inputs": [
        {
          "name": "startTime",
          "type": "uint256"
        }
      ],
      "name": "getWeather",
      "outputs": [],
      "payable": true,
      "stateMutability": "payable",
      "type": "function"
    },
    {
      "constant": false,
      "inputs": [
        {
          "name": "_myid",
          "type": "bytes32"
        },
        {
          "name": "_result",
          "type": "string"
        }
      ],
      "name": "__callback",
      "outputs": [],
      "payable": false,
      "stateMutability": "nonpayable",
      "type": "function"
    },
    {
      "constant": false,
      "inputs": [
        {
          "name": "_myid",
          "type": "bytes32"
        },
        {
          "name": "_result",
          "type": "string"
        },
        {
          "name": "_proof",
          "type": "bytes"
        }
      ],
      "name": "__callback",
      "outputs": [],
      "payable": false,
      "stateMutability": "nonpayable",
      "type": "function"
    }
  ],
  "bytecode": "0x608060405260405160208062002891833981018060405260208110156200002557600080fd5b810190808051906020019092919050505033600560006101000a81548173ffffffffffffffffffffffffffffffffffffffff021916908373ffffffffffffffffffffffffffffffffffffffff1602179055503460068190555034600881905550736f485c8bf6fc43ea212e93bbf8ce046c7f1cb475600160006101000a81548173ffffffffffffffffffffffffffffffffffffffff021916908373ffffffffffffffffffffffffffffffffffffffff160217905550620000f481620000fb640100000000026401000000009004565b5062000f44565b7f096835e36c2ccea88ff2b3aca87dfc938b977e52ea656873ff76a8dba50d4d346040518080602001828103825260278152602001807f5175657279207761732073656e742077616974696e6720666f7220726573706f81526020017f6e73652e2e2e2e0000000000000000000000000000000000000000000000000081525060400191505060405180910390a16200020f816040805190810160405280600c81526020017f576f6c6672616d416c70686100000000000000000000000000000000000000008152506040805190810160405280601881526020017f54656d706572617475726520696e20526f7474657264616d000000000000000081525062000213640100000000026401000000009004565b5050565b60008073ffffffffffffffffffffffffffffffffffffffff16600160009054906101000a900473ffffffffffffffffffffffffffffffffffffffff1673ffffffffffffffffffffffffffffffffffffffff161480620002ad57506000620002ab600160009054906101000a900473ffffffffffffffffffffffffffffffffffffffff1662000808640100000000026401000000009004565b145b15620002d057620002ce600062000813640100000000026401000000009004565b505b600160009054906101000a900473ffffffffffffffffffffffffffffffffffffffff1673ffffffffffffffffffffffffffffffffffffffff166338cc48316040518163ffffffff167c0100000000000000000000000000000000000000000000000000000000028152600401602060405180830381600087803b1580156200035757600080fd5b505af11580156200036c573d6000803e3d6000fd5b505050506040513d60208110156200038357600080fd5b810190808051906020019092919050505073ffffffffffffffffffffffffffffffffffffffff166000809054906101000a900473ffffffffffffffffffffffffffffffffffffffff1673ffffffffffffffffffffffffffffffffffffffff16141515620004ee57600160009054906101000a900473ffffffffffffffffffffffffffffffffffffffff1673ffffffffffffffffffffffffffffffffffffffff166338cc48316040518163ffffffff167c0100000000000000000000000000000000000000000000000000000000028152600401602060405180830381600087803b1580156200047157600080fd5b505af115801562000486573d6000803e3d6000fd5b505050506040513d60208110156200049d57600080fd5b81019080805190602001909291905050506000806101000a81548173ffffffffffffffffffffffffffffffffffffffff021916908373ffffffffffffffffffffffffffffffffffffffff1602179055505b60008060009054906101000a900473ffffffffffffffffffffffffffffffffffffffff1673ffffffffffffffffffffffffffffffffffffffff1663524f3889856040518263ffffffff167c01000000000000000000000000000000000000000000000000000000000281526004018080602001828103825283818151815260200191508051906020019080838360005b838110156200059b5780820151818401526020810190506200057e565b50505050905090810190601f168015620005c95780820380516001836020036101000a031916815260200191505b5092505050602060405180830381600087803b158015620005e957600080fd5b505af1158015620005fe573d6000803e3d6000fd5b505050506040513d60208110156200061557600080fd5b8101908080519060200190929190505050905062030d403a02670de0b6b3a7640000018111156200064e57600060010291505062000801565b6000809054906101000a900473ffffffffffffffffffffffffffffffffffffffff1673ffffffffffffffffffffffffffffffffffffffff1663adf59f99828787876040518563ffffffff167c0100000000000000000000000000000000000000000000000000000000028152600401808481526020018060200180602001838103835285818151815260200191508051906020019080838360005b8381101562000706578082015181840152602081019050620006e9565b50505050905090810190601f168015620007345780820380516001836020036101000a031916815260200191505b50838103825284818151815260200191508051906020019080838360005b838110156200076f57808201518184015260208101905062000752565b50505050905090810190601f1680156200079d5780820380516001836020036101000a031916815260200191505b50955050505050506020604051808303818588803b158015620007bf57600080fd5b505af1158015620007d4573d6000803e3d6000fd5b50505050506040513d6020811015620007ec57600080fd5b81019080805190602001909291905050509150505b9392505050565b6000813b9050919050565b60006200082e62000835640100000000026401000000009004565b9050919050565b60008062000866731d3b2638a7cc9f2cb3d298a3da7a90b67e5506ed62000808640100000000026401000000009004565b11156200091b57731d3b2638a7cc9f2cb3d298a3da7a90b67e5506ed600160006101000a81548173ffffffffffffffffffffffffffffffffffffffff021916908373ffffffffffffffffffffffffffffffffffffffff160217905550620009116040805190810160405280600b81526020017f6574685f6d61696e6e657400000000000000000000000000000000000000000081525062000e79640100000000026401000000009004565b6001905062000e76565b60006200094b73c03a2615d5efaf5f49f60b7bb6583eaec212fdf162000808640100000000026401000000009004565b111562000a005773c03a2615d5efaf5f49f60b7bb6583eaec212fdf1600160006101000a81548173ffffffffffffffffffffffffffffffffffffffff021916908373ffffffffffffffffffffffffffffffffffffffff160217905550620009f66040805190810160405280600c81526020017f6574685f726f707374656e33000000000000000000000000000000000000000081525062000e79640100000000026401000000009004565b6001905062000e76565b600062000a3073b7a07bcf2ba2f2703b24c0691b5278999c59ac7e62000808640100000000026401000000009004565b111562000ae55773b7a07bcf2ba2f2703b24c0691b5278999c59ac7e600160006101000a81548173ffffffffffffffffffffffffffffffffffffffff021916908373ffffffffffffffffffffffffffffffffffffffff16021790555062000adb6040805190810160405280600981526020017f6574685f6b6f76616e000000000000000000000000000000000000000000000081525062000e79640100000000026401000000009004565b6001905062000e76565b600062000b1573146500cfd35b22e4a392fe0adc06de1a1368ed4862000808640100000000026401000000009004565b111562000bca5773146500cfd35b22e4a392fe0adc06de1a1368ed48600160006101000a81548173ffffffffffffffffffffffffffffffffffffffff021916908373ffffffffffffffffffffffffffffffffffffffff16021790555062000bc06040805190810160405280600b81526020017f6574685f72696e6b65627900000000000000000000000000000000000000000081525062000e79640100000000026401000000009004565b6001905062000e76565b600062000bfa73a2998efd205fb9d4b4963afb70778d6354ad3a4162000808640100000000026401000000009004565b111562000caf5773a2998efd205fb9d4b4963afb70778d6354ad3a41600160006101000a81548173ffffffffffffffffffffffffffffffffffffffff021916908373ffffffffffffffffffffffffffffffffffffffff16021790555062000ca56040805190810160405280600a81526020017f6574685f676f65726c690000000000000000000000000000000000000000000081525062000e79640100000000026401000000009004565b6001905062000e76565b600062000cdf736f485c8bf6fc43ea212e93bbf8ce046c7f1cb47562000808640100000000026401000000009004565b111562000d4557736f485c8bf6fc43ea212e93bbf8ce046c7f1cb475600160006101000a81548173ffffffffffffffffffffffffffffffffffffffff021916908373ffffffffffffffffffffffffffffffffffffffff1602179055506001905062000e76565b600062000d757320e12a1f859b3feae5fb2a0a32c18f5a65555bbf62000808640100000000026401000000009004565b111562000ddb577320e12a1f859b3feae5fb2a0a32c18f5a65555bbf600160006101000a81548173ffffffffffffffffffffffffffffffffffffffff021916908373ffffffffffffffffffffffffffffffffffffffff1602179055506001905062000e76565b600062000e0b7351efaf4c8b3c9afbd5ab9f4bbc82784ab6ef8faa62000808640100000000026401000000009004565b111562000e71577351efaf4c8b3c9afbd5ab9f4bbc82784ab6ef8faa600160006101000a81548173ffffffffffffffffffffffffffffffffffffffff021916908373ffffffffffffffffffffffffffffffffffffffff1602179055506001905062000e76565b600090505b90565b806002908051906020019062000e9192919062000e95565b5050565b828054600181600116156101000203166002900490600052602060002090601f016020900481019282601f1062000ed857805160ff191683800117855562000f09565b8280016001018555821562000f09579182015b8281111562000f0857825182559160200191906001019062000eeb565b5b50905062000f18919062000f1c565b5090565b62000f4191905b8082111562000f3d57600081600090555060010162000f23565b5090565b90565b61193d8062000f546000396000f3fe60806040526004361061008e576000357c0100000000000000000000000000000000000000000000000000000000900463ffffffff1680630637faa4146100935780631d73c64c1461009d57806327dc297e146100c857806338bbfa501461019a57806359a5f12d1461030357806360c5a7201461035a5780638da5cb5b14610388578063adccea12146103df575b600080fd5b61009b61040a565b005b3480156100a957600080fd5b506100b26104b0565b6040518082815260200191505060405180910390f35b3480156100d457600080fd5b50610198600480360360408110156100eb57600080fd5b81019080803590602001909291908035906020019064010000000081111561011257600080fd5b82018360208201111561012457600080fd5b8035906020019184600183028401116401000000008311171561014657600080fd5b91908080601f016020809104026020016040519081016040528093929190818152602001838380828437600081840152601f19601f8201169050808301925050505050505091929192905050506104b6565b005b3480156101a657600080fd5b50610301600480360360608110156101bd57600080fd5b8101908080359060200190929190803590602001906401000000008111156101e457600080fd5b8201836020820111156101f657600080fd5b8035906020019184600183028401116401000000008311171561021857600080fd5b91908080601f016020809104026020016040519081016040528093929190818152602001838380828437600081840152601f19601f8201169050808301925050505050505091929192908035906020019064010000000081111561027b57600080fd5b82018360208201111561028d57600080fd5b803590602001918460018302840111640100000000831117156102af57600080fd5b91908080601f016020809104026020016040519081016040528093929190818152602001838380828437600081840152601f19601f8201169050808301925050505050505091929192905050506105a6565b005b34801561030f57600080fd5b506103186105ab565b604051808273ffffffffffffffffffffffffffffffffffffffff1673ffffffffffffffffffffffffffffffffffffffff16815260200191505060405180910390f35b6103866004803603602081101561037057600080fd5b81019080803590602001909291905050506105d1565b005b34801561039457600080fd5b5061039d6106d8565b604051808273ffffffffffffffffffffffffffffffffffffffff1673ffffffffffffffffffffffffffffffffffffffff16815260200191505060405180910390f35b3480156103eb57600080fd5b506103f46106fe565b6040518082815260200191505060405180910390f35b6006543414151561045d573373ffffffffffffffffffffffffffffffffffffffff166108fc349081150290604051600060405180830381858888f1935050505015801561045b573d6000803e3d6000fd5b505b33600760006101000a81548173ffffffffffffffffffffffffffffffffffffffff021916908373ffffffffffffffffffffffffffffffffffffffff16021790555034600860008282540192505081905550565b60065481565b6104be610704565b73ffffffffffffffffffffffffffffffffffffffff163373ffffffffffffffffffffffffffffffffffffffff161415156104f757600080fd5b7f738c4fab4f4c556f6f79d8da6d0302ddaf21484a09f30494d74d5ef496955f82816040518080602001828103825283818151815260200191508051906020019080838360005b8381101561055957808201518184015260208101905061053e565b50505050905090810190601f1680156105865780820380516001836020036101000a031916815260200191505b509250505060405180910390a161059c81610a77565b6009819055505050565b505050565b600760009054906101000a900473ffffffffffffffffffffffffffffffffffffffff1681565b7f096835e36c2ccea88ff2b3aca87dfc938b977e52ea656873ff76a8dba50d4d346040518080602001828103825260278152602001807f5175657279207761732073656e742077616974696e6720666f7220726573706f81526020017f6e73652e2e2e2e0000000000000000000000000000000000000000000000000081525060400191505060405180910390a16106d4816040805190810160405280600c81526020017f576f6c6672616d416c70686100000000000000000000000000000000000000008152506040805190810160405280601881526020017f54656d706572617475726520696e20526f7474657264616d0000000000000000815250610a8b565b5050565b600560009054906101000a900473ffffffffffffffffffffffffffffffffffffffff1681565b60095481565b60008073ffffffffffffffffffffffffffffffffffffffff16600160009054906101000a900473ffffffffffffffffffffffffffffffffffffffff1673ffffffffffffffffffffffffffffffffffffffff16148061078c5750600061078a600160009054906101000a900473ffffffffffffffffffffffffffffffffffffffff16611044565b145b1561079d5761079b600061104f565b505b600160009054906101000a900473ffffffffffffffffffffffffffffffffffffffff1673ffffffffffffffffffffffffffffffffffffffff166338cc48316040518163ffffffff167c0100000000000000000000000000000000000000000000000000000000028152600401602060405180830381600087803b15801561082357600080fd5b505af1158015610837573d6000803e3d6000fd5b505050506040513d602081101561084d57600080fd5b810190808051906020019092919050505073ffffffffffffffffffffffffffffffffffffffff166000809054906101000a900473ffffffffffffffffffffffffffffffffffffffff1673ffffffffffffffffffffffffffffffffffffffff161415156109b457600160009054906101000a900473ffffffffffffffffffffffffffffffffffffffff1673ffffffffffffffffffffffffffffffffffffffff166338cc48316040518163ffffffff167c0100000000000000000000000000000000000000000000000000000000028152600401602060405180830381600087803b15801561093957600080fd5b505af115801561094d573d6000803e3d6000fd5b505050506040513d602081101561096357600080fd5b81019080805190602001909291905050506000806101000a81548173ffffffffffffffffffffffffffffffffffffffff021916908373ffffffffffffffffffffffffffffffffffffffff1602179055505b6000809054906101000a900473ffffffffffffffffffffffffffffffffffffffff1673ffffffffffffffffffffffffffffffffffffffff1663c281d19e6040518163ffffffff167c010000000000000000000000000000000000000000000000000000000002815260040160206040518083038186803b158015610a3757600080fd5b505afa158015610a4b573d6000803e3d6000fd5b505050506040513d6020811015610a6157600080fd5b8101908080519060200190929190505050905090565b6000610a84826000611060565b9050919050565b60008073ffffffffffffffffffffffffffffffffffffffff16600160009054906101000a900473ffffffffffffffffffffffffffffffffffffffff1673ffffffffffffffffffffffffffffffffffffffff161480610b1357506000610b11600160009054906101000a900473ffffffffffffffffffffffffffffffffffffffff16611044565b145b15610b2457610b22600061104f565b505b600160009054906101000a900473ffffffffffffffffffffffffffffffffffffffff1673ffffffffffffffffffffffffffffffffffffffff166338cc48316040518163ffffffff167c0100000000000000000000000000000000000000000000000000000000028152600401602060405180830381600087803b158015610baa57600080fd5b505af1158015610bbe573d6000803e3d6000fd5b505050506040513d6020811015610bd457600080fd5b810190808051906020019092919050505073ffffffffffffffffffffffffffffffffffffffff166000809054906101000a900473ffffffffffffffffffffffffffffffffffffffff1673ffffffffffffffffffffffffffffffffffffffff16141515610d3b57600160009054906101000a900473ffffffffffffffffffffffffffffffffffffffff1673ffffffffffffffffffffffffffffffffffffffff166338cc48316040518163ffffffff167c0100000000000000000000000000000000000000000000000000000000028152600401602060405180830381600087803b158015610cc057600080fd5b505af1158015610cd4573d6000803e3d6000fd5b505050506040513d6020811015610cea57600080fd5b81019080805190602001909291905050506000806101000a81548173ffffffffffffffffffffffffffffffffffffffff021916908373ffffffffffffffffffffffffffffffffffffffff1602179055505b60008060009054906101000a900473ffffffffffffffffffffffffffffffffffffffff1673ffffffffffffffffffffffffffffffffffffffff1663524f3889856040518263ffffffff167c01000000000000000000000000000000000000000000000000000000000281526004018080602001828103825283818151815260200191508051906020019080838360005b83811015610de6578082015181840152602081019050610dcb565b50505050905090810190601f168015610e135780820380516001836020036101000a031916815260200191505b5092505050602060405180830381600087803b158015610e3257600080fd5b505af1158015610e46573d6000803e3d6000fd5b505050506040513d6020811015610e5c57600080fd5b8101908080519060200190929190505050905062030d403a02670de0b6b3a764000001811115610e9357600060010291505061103d565b6000809054906101000a900473ffffffffffffffffffffffffffffffffffffffff1673ffffffffffffffffffffffffffffffffffffffff1663adf59f99828787876040518563ffffffff167c0100000000000000000000000000000000000000000000000000000000028152600401808481526020018060200180602001838103835285818151815260200191508051906020019080838360005b83811015610f49578082015181840152602081019050610f2e565b50505050905090810190601f168015610f765780820380516001836020036101000a031916815260200191505b50838103825284818151815260200191508051906020019080838360005b83811015610faf578082015181840152602081019050610f94565b50505050905090810190601f168015610fdc5780820380516001836020036101000a031916815260200191505b50955050505050506020604051808303818588803b158015610ffd57600080fd5b505af1158015611011573d6000803e3d6000fd5b50505050506040513d602081101561102857600080fd5b81019080805190602001909291905050509150505b9392505050565b6000813b9050919050565b60006110596112fb565b9050919050565b600060608390506000809050600080905060008090505b83518110156112dc576030848281518110151561109057fe5b9060200101517f010000000000000000000000000000000000000000000000000000000000000090047f0100000000000000000000000000000000000000000000000000000000000000027f0100000000000000000000000000000000000000000000000000000000000000900460ff161015801561118e57506039848281518110151561111a57fe5b9060200101517f010000000000000000000000000000000000000000000000000000000000000090047f0100000000000000000000000000000000000000000000000000000000000000027f0100000000000000000000000000000000000000000000000000000000000000900460ff1611155b156112425781156111b15760008614156111a7576112dc565b8580600190039650505b600a83029250603084828151811015156111c757fe5b9060200101517f010000000000000000000000000000000000000000000000000000000000000090047f0100000000000000000000000000000000000000000000000000000000000000027f0100000000000000000000000000000000000000000000000000000000000000900460ff1603830192506112cf565b602e848281518110151561125257fe5b9060200101517f010000000000000000000000000000000000000000000000000000000000000090047f0100000000000000000000000000000000000000000000000000000000000000027f0100000000000000000000000000000000000000000000000000000000000000900460ff1614156112ce57600191505b5b8080600101915050611077565b5060008511156112ef5784600a0a820291505b81935050505092915050565b60008061131b731d3b2638a7cc9f2cb3d298a3da7a90b67e5506ed611044565b11156113bd57731d3b2638a7cc9f2cb3d298a3da7a90b67e5506ed600160006101000a81548173ffffffffffffffffffffffffffffffffffffffff021916908373ffffffffffffffffffffffffffffffffffffffff1602179055506113b46040805190810160405280600b81526020017f6574685f6d61696e6e6574000000000000000000000000000000000000000000815250611852565b6001905061184f565b60006113dc73c03a2615d5efaf5f49f60b7bb6583eaec212fdf1611044565b111561147e5773c03a2615d5efaf5f49f60b7bb6583eaec212fdf1600160006101000a81548173ffffffffffffffffffffffffffffffffffffffff021916908373ffffffffffffffffffffffffffffffffffffffff1602179055506114756040805190810160405280600c81526020017f6574685f726f707374656e330000000000000000000000000000000000000000815250611852565b6001905061184f565b600061149d73b7a07bcf2ba2f2703b24c0691b5278999c59ac7e611044565b111561153f5773b7a07bcf2ba2f2703b24c0691b5278999c59ac7e600160006101000a81548173ffffffffffffffffffffffffffffffffffffffff021916908373ffffffffffffffffffffffffffffffffffffffff1602179055506115366040805190810160405280600981526020017f6574685f6b6f76616e0000000000000000000000000000000000000000000000815250611852565b6001905061184f565b600061155e73146500cfd35b22e4a392fe0adc06de1a1368ed48611044565b11156116005773146500cfd35b22e4a392fe0adc06de1a1368ed48600160006101000a81548173ffffffffffffffffffffffffffffffffffffffff021916908373ffffffffffffffffffffffffffffffffffffffff1602179055506115f76040805190810160405280600b81526020017f6574685f72696e6b656279000000000000000000000000000000000000000000815250611852565b6001905061184f565b600061161f73a2998efd205fb9d4b4963afb70778d6354ad3a41611044565b11156116c15773a2998efd205fb9d4b4963afb70778d6354ad3a41600160006101000a81548173ffffffffffffffffffffffffffffffffffffffff021916908373ffffffffffffffffffffffffffffffffffffffff1602179055506116b86040805190810160405280600a81526020017f6574685f676f65726c6900000000000000000000000000000000000000000000815250611852565b6001905061184f565b60006116e0736f485c8bf6fc43ea212e93bbf8ce046c7f1cb475611044565b111561174457736f485c8bf6fc43ea212e93bbf8ce046c7f1cb475600160006101000a81548173ffffffffffffffffffffffffffffffffffffffff021916908373ffffffffffffffffffffffffffffffffffffffff1602179055506001905061184f565b60006117637320e12a1f859b3feae5fb2a0a32c18f5a65555bbf611044565b11156117c7577320e12a1f859b3feae5fb2a0a32c18f5a65555bbf600160006101000a81548173ffffffffffffffffffffffffffffffffffffffff021916908373ffffffffffffffffffffffffffffffffffffffff1602179055506001905061184f565b60006117e67351efaf4c8b3c9afbd5ab9f4bbc82784ab6ef8faa611044565b111561184a577351efaf4c8b3c9afbd5ab9f4bbc82784ab6ef8faa600160006101000a81548173ffffffffffffffffffffffffffffffffffffffff021916908373ffffffffffffffffffffffffffffffffffffffff1602179055506001905061184f565b600090505b90565b806002908051906020019061186892919061186c565b5050565b828054600181600116156101000203166002900490600052602060002090601f016020900481019282601f106118ad57805160ff19168380011785556118db565b828001600101855582156118db579182015b828111156118da5782518255916020019190600101906118bf565b5b5090506118e891906118ec565b5090565b61190e91905b8082111561190a5760008160009055506001016118f2565b5090565b9056fea165627a7a72305820302d2f797f344f31a5aacca2e06b045ed7272135e9c2caea388f946fa22397880029",
  "source": "pragma solidity ^0.5.0;\nimport \"./oraclizeAPI_0.5.sol\";\n\n\ncontract WeatherBet is usingOraclize  {\n  address public owner;\n  uint public initialBet;\n  address public player2;\n  uint internal total;\n  uint public temperature;\n  event NewOraclizeQuery(string description);\n  event NewTemperature(string temperature);\n\n  constructor(uint startTime) public payable {\n    owner = msg.sender;\n    initialBet = msg.value;\n    total = msg.value;\n    OAR = OraclizeAddrResolverI(0x6f485C8BF6fc43eA212E93BBF8ce046C7f1cb475);\n    getWeather(startTime);\n  }\n\n  function addPlayer2() public payable {\n    if(msg.value != initialBet) {\n      msg.sender.transfer(msg.value);\n    }\n    player2 = msg.sender;\n    total += msg.value;\n  }\n\n  function getWeather(uint startTime) public payable {\n    emit NewOraclizeQuery(\"Query was sent waiting for response....\");\n    oraclize_query(startTime, \"WolframAlpha\", \"Temperature in Rotterdam\");\n  }\n\n  function __callback(bytes32 _myid, string memory _result) public {\n    if(msg.sender != oraclize_cbAddress()) revert();\n    emit NewTemperature(_result);\n    temperature = parseInt(_result);\n  }\n}\n",
  "sourcePath": "/home/debreker/Dev/school/WeatherWars/contracts/WeatherBet.sol",
  "compiler": {
    "name": "solc",
    "version": "0.5.0+commit.1d4f565a.Emscripten.clang"
  },
  "schemaVersion": "3.0.9",
  "updatedAt": "2019-06-14T10:02:28.285Z",
  "devdoc": {
    "methods": {}
  },
  "userdoc": {
    "methods": {}
  }
}