{
  "contractName": "WeatherContract",
  "abi": [
    {
      "constant": true,
      "inputs": [],
      "name": "temperature",
      "outputs": [
        {
          "name": "",
          "type": "uint256"
        }
      ],
      "payable": false,
      "stateMutability": "view",
      "type": "function"
    },
    {
      "inputs": [],
      "payable": false,
      "stateMutability": "nonpayable",
      "type": "constructor"
    },
    {
      "anonymous": false,
      "inputs": [
        {
          "indexed": false,
          "name": "description",
          "type": "string"
        }
      ],
      "name": "NewOraclizeQuery",
      "type": "event"
    },
    {
      "anonymous": false,
      "inputs": [
        {
          "indexed": false,
          "name": "temperature",
          "type": "string"
        }
      ],
      "name": "NewTemperature",
      "type": "event"
    },
    {
      "constant": false,
      "inputs": [
        {
          "name": "_myid",
          "type": "bytes32"
        },
        {
          "name": "_result",
          "type": "string"
        }
      ],
      "name": "__callback",
      "outputs": [],
      "payable": false,
      "stateMutability": "nonpayable",
      "type": "function"
    },
    {
      "constant": false,
      "inputs": [
        {
          "name": "_myid",
          "type": "bytes32"
        },
        {
          "name": "_result",
          "type": "string"
        },
        {
          "name": "_proof",
          "type": "bytes"
        }
      ],
      "name": "__callback",
      "outputs": [],
      "payable": false,
      "stateMutability": "nonpayable",
      "type": "function"
    },
    {
      "constant": false,
      "inputs": [],
      "name": "update",
      "outputs": [],
      "payable": true,
      "stateMutability": "payable",
      "type": "function"
    }
  ],
  "bytecode": "0x608060405234801561001057600080fd5b50736f485c8bf6fc43ea212e93bbf8ce046c7f1cb475600160006101000a81548173ffffffffffffffffffffffffffffffffffffffff021916908373ffffffffffffffffffffffffffffffffffffffff160217905550611710806100756000396000f3fe608060405260043610610062576000357c0100000000000000000000000000000000000000000000000000000000900463ffffffff16806327dc297e1461006757806338bbfa5014610139578063a2e62045146102a2578063adccea12146102ac575b600080fd5b34801561007357600080fd5b506101376004803603604081101561008a57600080fd5b8101908080359060200190929190803590602001906401000000008111156100b157600080fd5b8201836020820111156100c357600080fd5b803590602001918460018302840111640100000000831117156100e557600080fd5b91908080601f016020809104026020016040519081016040528093929190818152602001838380828437600081840152601f19601f8201169050808301925050505050505091929192905050506102d7565b005b34801561014557600080fd5b506102a06004803603606081101561015c57600080fd5b81019080803590602001909291908035906020019064010000000081111561018357600080fd5b82018360208201111561019557600080fd5b803590602001918460018302840111640100000000831117156101b757600080fd5b91908080601f016020809104026020016040519081016040528093929190818152602001838380828437600081840152601f19601f8201169050808301925050505050505091929192908035906020019064010000000081111561021a57600080fd5b82018360208201111561022c57600080fd5b8035906020019184600183028401116401000000008311171561024e57600080fd5b91908080601f016020809104026020016040519081016040528093929190818152602001838380828437600081840152601f19601f8201169050808301925050505050505091929192905050506103c7565b005b6102aa6103cc565b005b3480156102b857600080fd5b506102c16104d1565b6040518082815260200191505060405180910390f35b6102df6104d7565b73ffffffffffffffffffffffffffffffffffffffff163373ffffffffffffffffffffffffffffffffffffffff1614151561031857600080fd5b7f738c4fab4f4c556f6f79d8da6d0302ddaf21484a09f30494d74d5ef496955f82816040518080602001828103825283818151815260200191508051906020019080838360005b8381101561037a57808201518184015260208101905061035f565b50505050905090810190601f1680156103a75780820380516001836020036101000a031916815260200191505b509250505060405180910390a16103bd8161084a565b6005819055505050565b505050565b7f096835e36c2ccea88ff2b3aca87dfc938b977e52ea656873ff76a8dba50d4d346040518080602001828103825260278152602001807f5175657279207761732073656e742077616974696e6720666f7220726573706f81526020017f6e73652e2e2e2e0000000000000000000000000000000000000000000000000081525060400191505060405180910390a16104ce6040805190810160405280600c81526020017f576f6c6672616d416c70686100000000000000000000000000000000000000008152506040805190810160405280601881526020017f54656d706572617475726520696e20526f7474657264616d000000000000000081525061085e565b50565b60055481565b60008073ffffffffffffffffffffffffffffffffffffffff16600160009054906101000a900473ffffffffffffffffffffffffffffffffffffffff1673ffffffffffffffffffffffffffffffffffffffff16148061055f5750600061055d600160009054906101000a900473ffffffffffffffffffffffffffffffffffffffff16610e17565b145b156105705761056e6000610e22565b505b600160009054906101000a900473ffffffffffffffffffffffffffffffffffffffff1673ffffffffffffffffffffffffffffffffffffffff166338cc48316040518163ffffffff167c0100000000000000000000000000000000000000000000000000000000028152600401602060405180830381600087803b1580156105f657600080fd5b505af115801561060a573d6000803e3d6000fd5b505050506040513d602081101561062057600080fd5b810190808051906020019092919050505073ffffffffffffffffffffffffffffffffffffffff166000809054906101000a900473ffffffffffffffffffffffffffffffffffffffff1673ffffffffffffffffffffffffffffffffffffffff1614151561078757600160009054906101000a900473ffffffffffffffffffffffffffffffffffffffff1673ffffffffffffffffffffffffffffffffffffffff166338cc48316040518163ffffffff167c0100000000000000000000000000000000000000000000000000000000028152600401602060405180830381600087803b15801561070c57600080fd5b505af1158015610720573d6000803e3d6000fd5b505050506040513d602081101561073657600080fd5b81019080805190602001909291905050506000806101000a81548173ffffffffffffffffffffffffffffffffffffffff021916908373ffffffffffffffffffffffffffffffffffffffff1602179055505b6000809054906101000a900473ffffffffffffffffffffffffffffffffffffffff1673ffffffffffffffffffffffffffffffffffffffff1663c281d19e6040518163ffffffff167c010000000000000000000000000000000000000000000000000000000002815260040160206040518083038186803b15801561080a57600080fd5b505afa15801561081e573d6000803e3d6000fd5b505050506040513d602081101561083457600080fd5b8101908080519060200190929190505050905090565b6000610857826000610e33565b9050919050565b60008073ffffffffffffffffffffffffffffffffffffffff16600160009054906101000a900473ffffffffffffffffffffffffffffffffffffffff1673ffffffffffffffffffffffffffffffffffffffff1614806108e6575060006108e4600160009054906101000a900473ffffffffffffffffffffffffffffffffffffffff16610e17565b145b156108f7576108f56000610e22565b505b600160009054906101000a900473ffffffffffffffffffffffffffffffffffffffff1673ffffffffffffffffffffffffffffffffffffffff166338cc48316040518163ffffffff167c0100000000000000000000000000000000000000000000000000000000028152600401602060405180830381600087803b15801561097d57600080fd5b505af1158015610991573d6000803e3d6000fd5b505050506040513d60208110156109a757600080fd5b810190808051906020019092919050505073ffffffffffffffffffffffffffffffffffffffff166000809054906101000a900473ffffffffffffffffffffffffffffffffffffffff1673ffffffffffffffffffffffffffffffffffffffff16141515610b0e57600160009054906101000a900473ffffffffffffffffffffffffffffffffffffffff1673ffffffffffffffffffffffffffffffffffffffff166338cc48316040518163ffffffff167c0100000000000000000000000000000000000000000000000000000000028152600401602060405180830381600087803b158015610a9357600080fd5b505af1158015610aa7573d6000803e3d6000fd5b505050506040513d6020811015610abd57600080fd5b81019080805190602001909291905050506000806101000a81548173ffffffffffffffffffffffffffffffffffffffff021916908373ffffffffffffffffffffffffffffffffffffffff1602179055505b60008060009054906101000a900473ffffffffffffffffffffffffffffffffffffffff1673ffffffffffffffffffffffffffffffffffffffff1663524f3889856040518263ffffffff167c01000000000000000000000000000000000000000000000000000000000281526004018080602001828103825283818151815260200191508051906020019080838360005b83811015610bb9578082015181840152602081019050610b9e565b50505050905090810190601f168015610be65780820380516001836020036101000a031916815260200191505b5092505050602060405180830381600087803b158015610c0557600080fd5b505af1158015610c19573d6000803e3d6000fd5b505050506040513d6020811015610c2f57600080fd5b8101908080519060200190929190505050905062030d403a02670de0b6b3a764000001811115610c66576000600102915050610e11565b6000809054906101000a900473ffffffffffffffffffffffffffffffffffffffff1673ffffffffffffffffffffffffffffffffffffffff1663adf59f9982600087876040518563ffffffff167c0100000000000000000000000000000000000000000000000000000000028152600401808481526020018060200180602001838103835285818151815260200191508051906020019080838360005b83811015610d1d578082015181840152602081019050610d02565b50505050905090810190601f168015610d4a5780820380516001836020036101000a031916815260200191505b50838103825284818151815260200191508051906020019080838360005b83811015610d83578082015181840152602081019050610d68565b50505050905090810190601f168015610db05780820380516001836020036101000a031916815260200191505b50955050505050506020604051808303818588803b158015610dd157600080fd5b505af1158015610de5573d6000803e3d6000fd5b50505050506040513d6020811015610dfc57600080fd5b81019080805190602001909291905050509150505b92915050565b6000813b9050919050565b6000610e2c6110ce565b9050919050565b600060608390506000809050600080905060008090505b83518110156110af5760308482815181101515610e6357fe5b9060200101517f010000000000000000000000000000000000000000000000000000000000000090047f0100000000000000000000000000000000000000000000000000000000000000027f0100000000000000000000000000000000000000000000000000000000000000900460ff1610158015610f61575060398482815181101515610eed57fe5b9060200101517f010000000000000000000000000000000000000000000000000000000000000090047f0100000000000000000000000000000000000000000000000000000000000000027f0100000000000000000000000000000000000000000000000000000000000000900460ff1611155b15611015578115610f84576000861415610f7a576110af565b8580600190039650505b600a8302925060308482815181101515610f9a57fe5b9060200101517f010000000000000000000000000000000000000000000000000000000000000090047f0100000000000000000000000000000000000000000000000000000000000000027f0100000000000000000000000000000000000000000000000000000000000000900460ff1603830192506110a2565b602e848281518110151561102557fe5b9060200101517f010000000000000000000000000000000000000000000000000000000000000090047f0100000000000000000000000000000000000000000000000000000000000000027f0100000000000000000000000000000000000000000000000000000000000000900460ff1614156110a157600191505b5b8080600101915050610e4a565b5060008511156110c25784600a0a820291505b81935050505092915050565b6000806110ee731d3b2638a7cc9f2cb3d298a3da7a90b67e5506ed610e17565b111561119057731d3b2638a7cc9f2cb3d298a3da7a90b67e5506ed600160006101000a81548173ffffffffffffffffffffffffffffffffffffffff021916908373ffffffffffffffffffffffffffffffffffffffff1602179055506111876040805190810160405280600b81526020017f6574685f6d61696e6e6574000000000000000000000000000000000000000000815250611625565b60019050611622565b60006111af73c03a2615d5efaf5f49f60b7bb6583eaec212fdf1610e17565b11156112515773c03a2615d5efaf5f49f60b7bb6583eaec212fdf1600160006101000a81548173ffffffffffffffffffffffffffffffffffffffff021916908373ffffffffffffffffffffffffffffffffffffffff1602179055506112486040805190810160405280600c81526020017f6574685f726f707374656e330000000000000000000000000000000000000000815250611625565b60019050611622565b600061127073b7a07bcf2ba2f2703b24c0691b5278999c59ac7e610e17565b11156113125773b7a07bcf2ba2f2703b24c0691b5278999c59ac7e600160006101000a81548173ffffffffffffffffffffffffffffffffffffffff021916908373ffffffffffffffffffffffffffffffffffffffff1602179055506113096040805190810160405280600981526020017f6574685f6b6f76616e0000000000000000000000000000000000000000000000815250611625565b60019050611622565b600061133173146500cfd35b22e4a392fe0adc06de1a1368ed48610e17565b11156113d35773146500cfd35b22e4a392fe0adc06de1a1368ed48600160006101000a81548173ffffffffffffffffffffffffffffffffffffffff021916908373ffffffffffffffffffffffffffffffffffffffff1602179055506113ca6040805190810160405280600b81526020017f6574685f72696e6b656279000000000000000000000000000000000000000000815250611625565b60019050611622565b60006113f273a2998efd205fb9d4b4963afb70778d6354ad3a41610e17565b11156114945773a2998efd205fb9d4b4963afb70778d6354ad3a41600160006101000a81548173ffffffffffffffffffffffffffffffffffffffff021916908373ffffffffffffffffffffffffffffffffffffffff16021790555061148b6040805190810160405280600a81526020017f6574685f676f65726c6900000000000000000000000000000000000000000000815250611625565b60019050611622565b60006114b3736f485c8bf6fc43ea212e93bbf8ce046c7f1cb475610e17565b111561151757736f485c8bf6fc43ea212e93bbf8ce046c7f1cb475600160006101000a81548173ffffffffffffffffffffffffffffffffffffffff021916908373ffffffffffffffffffffffffffffffffffffffff16021790555060019050611622565b60006115367320e12a1f859b3feae5fb2a0a32c18f5a65555bbf610e17565b111561159a577320e12a1f859b3feae5fb2a0a32c18f5a65555bbf600160006101000a81548173ffffffffffffffffffffffffffffffffffffffff021916908373ffffffffffffffffffffffffffffffffffffffff16021790555060019050611622565b60006115b97351efaf4c8b3c9afbd5ab9f4bbc82784ab6ef8faa610e17565b111561161d577351efaf4c8b3c9afbd5ab9f4bbc82784ab6ef8faa600160006101000a81548173ffffffffffffffffffffffffffffffffffffffff021916908373ffffffffffffffffffffffffffffffffffffffff16021790555060019050611622565b600090505b90565b806002908051906020019061163b92919061163f565b5050565b828054600181600116156101000203166002900490600052602060002090601f016020900481019282601f1061168057805160ff19168380011785556116ae565b828001600101855582156116ae579182015b828111156116ad578251825591602001919060010190611692565b5b5090506116bb91906116bf565b5090565b6116e191905b808211156116dd5760008160009055506001016116c5565b5090565b9056fea165627a7a72305820a61b7ac4be0c7b6a1c5460c2cd701e3a35040b5c7ad867c37ea0c12e5a40967d0029",
  "source": "pragma solidity ^0.5.0;\nimport \"./oraclizeAPI_0.5.sol\";\n\n//WeatherContract.deployed().then(function(instance) {return instance.update()})\n\ncontract WeatherContract is usingOraclize{\nuint public temperature;\n\nevent NewOraclizeQuery(string description);\nevent NewTemperature(string temperature);\n\n    constructor() public\n    {\n        OAR = OraclizeAddrResolverI(0x6f485C8BF6fc43eA212E93BBF8ce046C7f1cb475);\n        // update();\n    }\n\n    function __callback(bytes32 _myid, string memory _result) public\n    {\n        if(msg.sender != oraclize_cbAddress()) revert();\n            emit NewTemperature(_result);\n            temperature = parseInt(_result);\n    }\n\n    function update() public payable\n    {\n        emit NewOraclizeQuery(\"Query was sent waiting for response....\");\n        oraclize_query(\"WolframAlpha\", \"Temperature in Rotterdam\");\n    }\n}",
  "sourcePath": "/home/debreker/Dev/school/WeatherWars/contracts/WeatherContract.sol",
  "compiler": {
    "name": "solc",
    "version": "0.5.0+commit.1d4f565a.Emscripten.clang"
  },
  "schemaVersion": "3.0.9",
  "updatedAt": "2019-05-13T15:45:55.606Z",
  "devdoc": {
    "methods": {}
  },
  "userdoc": {
    "methods": {}
  }
}